:020000040800F2
:10000000301D0020194200080505000807050008FA
:100010000B0500080F05000813050008000000008C
:1000200000000000000000000000000017050008AC
:1000300019050008000000001B050008C70400089F
:1000400033420008334200083342000833420008BC
:1000500033420008334200088D1B00083342000879
:1000600033420008334200080711000833420008F9
:10007000334200083342000833420008334200088C
:10008000334200083342000833420008334200087C
:10009000334200083342000833420008334200086C
:1000A000334200083342000833420008334200085C
:1000B000DB100008334200083342000833420008D6
:1000C000334200083342000833420008334200083C
:1000D00033420008D5020008190300083342000823
:1000E000334200083342000833420008334200081C
:1000F000334200083342000833420008334200080C
:1001000033420008334200083342000833420008FB
:100110005D030008A90400083342000833420008C8
:1001200033420008334200083342000833420008DB
:10013000DFF80CD004F094F8004800476D02000886
:10014000301D002010B502F01DFB4FF4803002F08E
:1001500039FB02F076FB0446012C2FD1102001F070
:100160009FFE022001F088FE002002F0ACFB002080
:1001700002F0BBFBA00202F0AFFB4FF4E011200441
:1001800002F084FB012002F08DFB00BF392002F059
:100190003CFB0028FAD0022002F087FB00BF02F0EF
:1001A0008DFB0828FBD1012002F08AFC01210846C2
:1001B00002F05BFC01213D2002F04AFC10BD10B5AD
:1001C00000214FF0006001F093FD4FF4A06001F0BA
:1001D00057FD10BD10B5FFF7B5FFFFF7F0FF10BDDD
:1001E0002DE9F04106460D460420BA49087001F099
:1001F00062FE352002F0F7F8B749681801F0A0FE5A
:10020000B4490870002409E0375BB34960183946E7
:1002100001F096FFAF490870A01C84B2681C8442AC
:1002200003DAAC4800780428EED001F050FEBDE8B7
:10023000F0810246002004E0A74BC35A1352831CEE
:1002400098B24B1C9842F7DB7047002000E0401C3E
:1002500047F230518842FADB704700B5642202E071
:10026000FFF7F3FF521E002AFADC00BDADF57A6DF0
:10027000FFF7B0FF00F09AFF01F052F901F0E2F948
:1002800001F05AFA01F0C5FA01F00AFC00F028FE6C
:1002900000F011FE002408E0601C0DF5FA6108551D
:1002A00000200DF80400601C84B2B4F57A7FF3DB03
:1002B00000F044FE0DE04FF48061884802F0C3F97D
:1002C000FFF7CBFF4FF48061844802F0BAF9FFF7E3
:1002D000C4FFF0E710B540F22551814803F074FEE9
:1002E00001280BD140F225517D4803F097FE7C4850
:1002F000001D0088C4B2204601F077F90821784833
:1003000003F04CFE012806D10821754803F053FE86
:10031000734803F0D9FD10BD10B540F22551714866
:1003200003F052FE01280BD140F225516D4803F035
:1003300075FE6C48001D0088C4B2204601F0E3F948
:100340000821684803F02AFE012806D108216548E3
:1003500003F031FE634803F0B7FD10BD10B540F265
:100360002551614803F030FE00281AD040F2255193
:100370005D4803F053FE5C4803F0A6FDC1B25B4844
:100380005B4A126881545A48006858B9574858491E
:100390000968405CBA2804D155480068401C54499B
:1003A00008607FE05248006801280BD14F4850494F
:1003B0000968405CBA2875D14D480068401C4C491A
:1003C00008606FE04A48006802280ED347488078EA
:1003D000484908600846016845480068401C814259
:1003E00003D200204249086010BD404840490968D6
:1003F000405CBC284DD13E480068042845D33B48AA
:1004000080783C4908600846016839480068401C0B
:10041000814236D100203649086000242EE004EBEA
:100420008400401D3149085C04EB8401324A505479
:1004300004EB8400801D2D49085C04EB8401114409
:10044000487004EB8400C01D2849095C04EB84005B
:100450001044817004EB840008302449095C04EBEB
:1004600084001044C17004EB840009301F49095C0A
:1004700004EB840010440171601CC4B2082CCEDB74
:1004800010E000201A4908600CE0002018490860BC
:1004900008E017480068642804D215480068401C2A
:1004A0001349086000BF9FE710B540F2255113487B
:1004B00003F08AFD30B1114803F006FDC4B22046B6
:1004C00001F0FDF910BD0E480068401C0C490860A1
:1004D000704700000C00002000000108000C0140E3
:1004E0000038014000440040004C004098000020CB
:1004F0000400002008000020700000200050004090
:1005000000000020704700BFFEE700BFFEE700BF0D
:10051000FEE700BFFEE770477047704708B5202030
:10052000ADF8000001208DF8020010208DF80300C6
:100530006946FE4801F0DAFF2021FC4802F081F80C
:100540001020ADF8000003208DF8020048208DF83F
:1005500003006946F54801F0C9FF08BD08B50A2047
:100560008DF8000000208DF8010001208DF80200B8
:100570008DF80300684601F088FB1C208DF8000010
:1005800000208DF801008DF8020001208DF8030095
:10059000684601F07AFB08BD00B587B0012141F241
:1005A000050002F055FAE020ADF8180003208DF8A0
:1005B0001A0018208DF81B0006A9DD4801F096FFEF
:1005C000E021DB4802F03DF81020ADF818000320D0
:1005D0008DF81A0010208DF81B0006A9D44801F0F0
:1005E00085FF1021D24802F02CF80020ADF804005D
:1005F0004FF48270ADF806000020ADF80800ADF8A9
:100600000A00ADF80C004FF40070ADF80E00102099
:10061000ADF810000020ADF812000720ADF814006E
:1006200001A9C44802F0A2FA0121C24802F043FB2A
:1006300007B000BD10B5044600BF0221BD4802F05E
:10064000BEFB0028F9D02146BA4802F065FB00BF86
:100650000121B84802F0B3FB0028F9D0B54802F0F8
:100660005DFBC0B210BD70B504461021B04801F06A
:10067000EAFF2546E11704EB1161C1F30720FFF7FC
:10068000D9FFE0B2FFF7D6FF0020FFF7D3FF01202C
:10069000FFF7D0FF0020FFF7CDFF06461021A4484A
:1006A00001F0CFFF304670BD70B504460D461021F5
:1006B0009F4801F0C8FF2646E11704EB1161C1F322
:1006C0000720FFF7B7FFE0B2FFF7B4FF8020FFF786
:1006D000B1FF0120FFF7AEFF2846FFF7ABFF102167
:1006E000934801F0AEFF70BD2DE9F04105460F467D
:1006F0001646002410218E4801F0A5FFA846E917F0
:1007000005EB1161C1F30720FFF794FFE8B2FFF793
:1007100091FF46F40044A046E11704EB1161C1F3D8
:100720000720FFF787FFE0B2FFF784FF002404E013
:10073000385DFFF77FFF601C84B2B442F8DB102104
:100740007B4801F07EFF3046BDE8F0812DE9F041A5
:1007500005460F46164600241021754801F073FF28
:10076000A846E91705EB1161C1F30720FFF762FF07
:10077000E8B2FFF75FFFC6F30E04A046E11704EBF3
:1007800011610812FFF756FFE0B2FFF753FF002494
:1007900005E00020FFF74EFF3855601C84B2B442DC
:1007A000F7DB1021624801F04CFF3046BDE8F081D4
:1007B0000021614A116000BF5F4909688142FBD393
:1007C000704710B52021594801F03DFF6420FFF724
:1007D000EFFF2021554801F034FF4FF47A70FFF706
:1007E000E7FF10BD10B5002480210020FFF75CFF5B
:1007F0006420FFF7DDFF042250490120FFF774FF5A
:1008000004224F490520FFF76FFF06224D490920BA
:10081000FFF76AFF04224C490F20FFF765FF00BF76
:1008200013E04FF4804101EB04211E3188B2022114
:10083000FFF73AFF4FF4804101EB04211F3188B2EA
:100840000221FFF731FF601CC4B2082CE9DB07214D
:100850001720FFF729FFD0211820FFF725FF0821D7
:100860001920FFF721FF80213620FFF71DFF01210E
:100870001620FFF719FF1F2144F22C00FFF714FF89
:1008800010BD70B504464FF4804101EB0421891C72
:1008900088B2FFF7E8FE0546002D08DD4FF48041E1
:1008A00001EB0421891C88B22946FFF7FDFE28468A
:1008B00070BD10B51BE001218803FFF7F5FE012193
:1008C00044F20100FFF7F0FE0A20FFF771FF44F247
:1008D0000300FFF7C8FE132808D0102144F20100DE
:1008E000FFF7E2FE0A2C02DB002010BD00E0E2E789
:1008F00000BF00240AE0144A125D521CD1B244F237
:100900000C02A018FFF7D0FE601CC4B2042CF2DB6E
:10091000042144F20100FFF7C7FE3220FFF748FF31
:1009200000BF0020FFF7ADFF10E000000010014005
:100930000008014000300140140000201C0000208D
:1009400020000020240000202A00002010F0080FC2
:1009500006D0102144F20100FFF7A6FE0020C4E7F4
:1009600044F20600FFF77FFEFF2805D0102144F275
:100970000100FFF799FE00E0D3E700BFFF20B4E7D6
:1009800010B504464FF4804101EB0421123188B2C6
:100990000521FFF789FE4FF4804101EB042113315B
:1009A00088B2B421FFF780FE082C13D2DFE804F0F0
:1009B000040B0C0D0E0F10110222F84944F2040032
:1009C000FFF792FE07E006E005E004E003E002E046
:1009D00001E000E000BF00BF10BD10B504464FF4B9
:1009E000804101EB042188B20121FFF75DFE4FF445
:1009F000804101EB0421491C88B20121FFF754FE1C
:100A00004FF4804101EB0421C91C88B2FFF72BFE93
:100A100013280AD04FF4804101EB0421491C88B20D
:100A20001021FFF741FE002010BD4FF4804101EB83
:100A30000421491C88B20421FFF736FEFF20F3E7AA
:100A400010B504464FF4804101EB042188B2012126
:100A5000FFF72AFE4FF4804101EB0421491C88B2C4
:100A60000121FFF721FE4FF4804101EB0421C91C55
:100A700088B2FFF7F8FD13280AD04FF4804101EB4C
:100A80000421491C88B21021FFF70EFE002010BD82
:100A90004FF4804101EB0421491C88B20221FFF789
:100AA00003FE4FF4804101EB0421C91C88B2FFF71B
:100AB000DAFD14280AD04FF4804101EB0421491CCF
:100AC00088B21021FFF7F0FD0020E0E7FF20DEE70D
:100AD00010B504464FF4804101EB042188B2022195
:100AE000FFF7E2FD4FF4804101EB0421491C88B27D
:100AF0000121FFF7D9FD4FF4804101EB0421C91C0E
:100B000088B2FFF7B0FD22280AD04FF4804101EBF4
:100B10000421491C88B21021FFF7C6FD002010BD3A
:100B2000FF20FCE72DE9F04705464FF4804101EB3B
:100B30000521263188B2FFF796FD07464FF6FF7074
:100B400000EA07274FF4804101EB0521273188B2E5
:100B5000FFF789FD384487B244F22800FFF783FD90
:100B600004464FF6FF7000EA042444F22900FFF720
:100B70007AFD204484B226462046E11704EB515109
:100B80004FEAE128A4EBC82084B23819B0F5006F11
:100B90000ADC4FF4404101EBC521214488B23A46BA
:100BA0007F49FFF7D3FD1AE0C4F500601FFA80F813
:100BB0004FF4404101EBC521214488B242467849B7
:100BC000FFF7C4FDA7EB08039AB2754B03EB0801CE
:100BD0004FF4404303EBC52398B2FFF7B7FDF0197C
:100BE00086B2B146F01706EB1060C0F3072144F25D
:100BF0002800FFF759FDF1B244F22900FFF754FD38
:100C0000402144F20100FFF74FFD00BF44F2010014
:100C1000FFF729FD0028F9D13846BDE8F0872DE916
:100C2000F047044688464FF4804101EB042188B226
:100C3000FFF719FD00F00F00022812D1410301EB6C
:100C400004210C3188B204225649FFF74DFD4FF4C0
:100C5000804101EB0421103188B202225249FFF792
:100C600043FD4FF4804101EB0421203188B2FFF7AE
:100C7000FAFC07464FF6FF7000EA07274FF4804161
:100C800001EB0421213188B2FFF7EDFC384487B233
:100C9000474502D20020BDE8F0874FF4804101EBC8
:100CA0000421243188B2FFF7DEFC05464FF6FF70C1
:100CB00000EA05254FF4804101EB0421253188B27B
:100CC000FFF7D1FC284485B22E462846E91705EBEC
:100CD0005151CF12A5EBC72085B205EB0800B0F546
:100CE000006F0BD81FFA88F24FF4004101EBC421CA
:100CF000294488B22D49FFF7F7FC18E0C5F50060DC
:100D000087B24FF4004101EBC421294488B23A462E
:100D10002649FFF7E9FCA8EB07039AB2234BD91940
:100D20004FF4004303EBC42398B2FFF7DDFC06EB5E
:100D3000080086B2B146F21706EB1262C2F3072131
:100D40004FF4804202EB0422243290B2FFF7ACFC55
:100D5000F1B24FF4804202EB0422253290B2FFF749
:100D6000A3FC4FF4804101EB0421491C88B22021EF
:100D7000FFF79AFC002708E00120FFF719FD781C17
:100D800080B20746282800DD05E00020FFF779FD46
:100D900010F0100FF0D000BFFF207CE72E000020E5
:100DA000FC000020360000203A000020CC08002083
:100DB00070B50020E14908701520FFF754FC054686
:100DC00029461520FFF770FC3420FFF74CFC054640
:100DD00015F0010F3AD044F20200FFF744FC04463C
:100DE000214644F20200FFF75FFC14F0010F05D02A
:100DF000D348007840F00200D149087014F0020F87
:100E000007D0102144F20100FFF74EFC0020CC492E
:100E1000087014F0100F05D0CA48007840F00200A6
:100E2000C849087014F0040F05D0C648007840F097
:100E30000100C449087014F0080F07D0102144F2D3
:100E40000100FFF731FC0020BD49087070BD1CB5E2
:100E50001020009000208DF804000C208DF8050073
:100E600001208DF80600684600F086FF042102206C
:100E700001F050FC1CBD0EB50121084601F0F5FD46
:100E80000920ADF8040041F61F40ADF80000002035
:100E9000ADF80600ADF8020069464FF0804002F060
:100EA00099F801221146900702F00BFC01218807F6
:100EB00002F0ECFB0EBD10B5FFF750FBFFF72EFB69
:100EC000FFF7D9FFFFF7C3FFFFF766FBFFF779FCDA
:100ED000FFF788FCFFF7EDFC0020FFF751FD10BD88
:100EE000C02099490870A820487001208870C870F7
:100EF000FF2096490870487000208870C8700C2048
:100F00009349087029204870AB2088707C20C870F5
:100F10000020087101204871C0208E490870A82067
:100F2000487001208870C720C87013208A49087053
:100F300088204870002089490870704710B58048A3
:100F40000078F8B98548007860B90020FFF778FD8F
:100F5000FF2803D101207A49087020E00020784959
:100F600008701CE07D48007801280CD10020FFF7B4
:100F700034FDFF2803D10120714908700FE00020E3
:100F80006F4908700BE00020FFF7A2FDFF2803D196
:100F900003206B49087002E000206949087010BD09
:100FA00070B56F48C678C12E09D0F02E04D0F12E4E
:100FB00003D0F22E0BD101E009E008E007E0684819
:100FC000047945792946204600F05CF900BF00BF4E
:100FD00064A000F0A6FB70BD70B506463046FFF772
:100FE000A1FD0446002568E06348405D5C49634A12
:100FF000126888546148006878B908465F490968F2
:10100000405CBA2805D15D480068401C5B49086017
:1010100051E00020594908604DE058480068012817
:101020000CD14F4855490968405CBA2805D153484E
:101030000068401C514908603DE03CE04F480068B2
:1010400002280ED3464880784D490860084601685A
:101050004A480068401C814203D20020474908608A
:1010600070BD3F4845490968405CBC2814D13C48E4
:101070008078434908600846016840480068401C81
:10108000814205D100203D490860FFF789FF12E049
:1010900000203A4908600EE038480068384909687D
:1010A000884205D235480068401C3449086002E097
:1010B000002032490860681C85B2A54294DB2246B4
:1010C0002D49304803F0BAF821463046FFF7A7FD16
:1010D0002DA000F026FB00BFC2E710B50121880754
:1010E00002F09DFD01280DD10121800702F0A8FD2D
:1010F0002C480068401C2B4908602B480068401CA5
:101100002949086010BD10B5102000F09BFEA0B169
:10111000102000F0A8FEFFF74BFE0A48007810F000
:10112000010F08D00748007820F001000549087039
:101130000020FFF751FFFFF701FF10BD3D00002029
:10114000110000203C0000201C0000202000002096
:10115000240000202A0000202E0000201000002083
:101160009C10002052656365697665446174615026
:10117000726F636573730A00FC0000204400002056
:1011800040000020CC0800204A61732050726F6339
:101190006573735F536F636B65745F446174612043
:1011A0000A000000140000201800002008B50121EA
:1011B000082001F04DFC0121402001F049FC0121F3
:1011C000202001F045FC0121802001F041FC10208D
:1011D0008DF803002020ADF8000003208DF80200F8
:1011E0006946CB4801F082F910208DF80300000118
:1011F000ADF8000003208DF802006946C44801F0F4
:1012000075F910208DF803004FF47F40ADF8000011
:1012100003208DF802006946BE4801F067F91020EE
:101220008DF803008001ADF8000003208DF8020066
:101230006946B74801F05AF94FF40060ADF8000074
:101240006946B34801F052F94FF4FC40ADF8000094
:101250006946B14801F04AF948208DF803007C2026
:10126000ADF8000003208DF802006946A94801F09E
:101270003DF940F2FF70ADF800006946A74801F063
:1012800035F908BD70B504460D46002D6DD0102C03
:1012900069D2DFE804F0080E141A20262C32383EFA
:1012A000444A50565C624FF480719A4801F0CBF981
:1012B0005AE04FF40071974801F0C5F954E04FF43B
:1012C0008061944801F0BFF94EE04FF4006191480D
:1012D00001F0B9F948E04FF480518E4801F0B3F9BC
:1012E00042E04FF400518B4801F0ADF93CE04FF47F
:1012F0008041884801F0A7F936E04FF40041854865
:1013000001F0A1F930E04FF48061814801F09BF9D0
:101310002AE04FF400617E4801F095F924E04FF493
:1013200000717D4801F08FF91EE04FF480617A482A
:1013300001F089F918E04FF40061774801F083F972
:1013400012E04FF48051744801F07DF90CE04FF445
:101350000051714801F077F906E04FF480416E4882
:1013600001F071F900E000BF6DE0102C69D2DFE8F8
:1013700004F0080E141A20262C32383E444A5056E7
:101380005C624FF48071634801F05BF95AE04FF4FE
:101390000071604801F055F954E04FF480615D48F8
:1013A00001F04FF94EE04FF400615A4801F049F95D
:1013B00048E04FF48051574801F043F942E04FF4C0
:1013C0000051544801F03DF93CE04FF48041514850
:1013D00001F037F936E04FF400414E4801F031F9A1
:1013E00030E04FF480614A4801F02BF92AE04FF4D5
:1013F0000061474801F025F924E04FF400714648A8
:1014000001F01FF91EE04FF48061434801F019F923
:1014100018E04FF40061404801F013F912E04FF476
:1014200080513D4801F00DF90CE04FF400513A486D
:1014300001F007F906E04FF48041374801F001F967
:1014400000E000BF00BF70BD10B50446102C5CD298
:10145000DFE804F0080D12171C21262B30353A3F27
:1014600044494F5504212B4801F0D1F810BD082103
:10147000284801F0CCF8F9E71021264801F0C7F818
:10148000F4E72021234801F0C2F8EFE7402121488A
:1014900001F0BDF8EAE70121204801F0B8F8E5E7DE
:1014A00002211E4801F0B3F8E0E704211B4801F0D7
:1014B000AEF8DBE70821194801F0A9F8D6E71021BA
:1014C000164801F0A4F8D1E72021144801F09FF854
:1014D000CCE74021114801F09AF8C7E780210F4876
:1014E00001F095F8C2E74FF480710C4801F08FF8D5
:1014F000BCE74FF40071094801F089F8B6E74FF4F2
:101500008061064801F083F8B0E7FF20AEE70000F5
:10151000000C01400018014000140140001C014073
:1015200000B589B025208DF80C0002208DF80D0043
:1015300000208DF80E0001208DF80F0003A800F0A8
:10154000A4FB0121042001F083FA012144F20100EF
:1015500001F07EFA4FF40070ADF8200003208DF802
:10156000220018208DF8230008A9F94800F0BEFFDA
:101570004FF48060ADF8200004208DF82300032094
:101580008DF8220008A9F24800F0B0FF0020ADF865
:101590000400ADF806004FF40070ADF8080000201C
:1015A000ADF80A0001A9EB4802F006FC4FF4165012
:1015B00004900020ADF81400ADF81600ADF8180046
:1015C000ADF81C000C20ADF81A0004A9E14802F0A7
:1015D0007EFB012240F22551DE4802F010FC012181
:1015E000DC4802F000FC09B000BD10B504462146FD
:1015F000D84802F065FC00BF8021D64802F0CEFC3E
:101600000028F9D010BD10B5044603E014F8010B12
:10161000FFF7EBFF20780028F8D110BDCD49091D58
:10162000088000BFCB49098811F0800FFAD07047BD
:10163000C849091D088000BFC649098811F0800FFC
:10164000FAD0704700B589B026208DF80C00022032
:101650008DF80D0001208DF80E008DF80F0003A805
:1016600000F013FB0121042001F0F2F901214804EC
:1016700001F0FBF90420ADF8200003208DF82200D2
:1016800018208DF8230008A9B14800F02FFF08208A
:10169000ADF8200004208DF8230003208DF82200EF
:1016A00008A9AB4800F022FF0020ADF80400ADF817
:1016B00006004FF40070ADF808000020ADF80A00F5
:1016C00001A9A54802F078FB4FF4165004900020C1
:1016D000ADF81400ADF81600ADF81800ADF81C0018
:1016E0000C20ADF81A0004A99B4802F0F0FA012280
:1016F00040F22551984802F082FB0121964802F001
:1017000072FB09B000BD10B504462146924802F0B4
:10171000D7FB00BF8021904802F040FC0028F9D0A0
:1017200010BD10B5044603E014F8010BFFF7EBFF02
:1017300020780028F8D110BD00B587B034208DF88E
:10174000040002208DF8050000208DF8060001201D
:101750008DF8070001A800F098FA0121102001F08F
:1017600077F90121C80401F080F94FF48060ADF8E9
:10177000180003208DF81A0018208DF81B0006A908
:10178000764800F0B3FE4FF40060ADF81800042076
:101790008DF81B0003208DF81A0006A96F4800F091
:1017A000A5FE4FF4165002900020ADF80C00ADF8E5
:1017B0000E00ADF81000ADF814000C20ADF81200CA
:1017C00002A9674802F083FA012240F225516448D9
:1017D00002F015FB0121624802F005FB07B000BDD5
:1017E00010B5044621465E4802F06AFB00BF802126
:1017F0005B4802F0D3FB0028F9D010BD10B50446B9
:1018000003E014F8010BFFF7EBFF20780028F8D174
:1018100010BD00B587B035208DF8040002208DF88A
:10182000050000208DF8060001208DF8070001A8B2
:1018300000F02BFA0121102001F00AF901212020EB
:1018400001F006F90121080501F00FF94FF480506D
:10185000ADF8180003208DF81A0018208DF81B0031
:1018600006A93E4800F042FE0420ADF818008DF8AD
:101870001B0003208DF81A0006A93A4800F036FE36
:101880004FF4165002900020ADF80C00ADF80E0099
:10189000ADF81000ADF814000C20ADF8120002A94C
:1018A000314802F014FA012240F225512E4802F08C
:1018B000A6FA01212C4802F096FA07B000BD10B537
:1018C00004462146284802F0FBFA00BF8021264842
:1018D00002F064FB0028F9D010BD10B5044603E007
:1018E00014F8010BFFF7EBFF20780028F8D110BDAA
:1018F0002DE9F04F8BB081460C46924628221BA161
:1019000001A802F09BFC0026BAF10A0F09D1B9F137
:10191000000F06DAC9F100072D223046761C22544A
:1019200000E04F4600BFB7FBFAF00AFB107001A9B8
:101930000A5C3046761C2254B7FBFAF7002FF2D12E
:101940000020A05520782D2824D14FF0010823E055
:1019500000080140003801400044004000100140F0
:10196000004C004000140140005000403031323340
:101970003435363738394142434445464748494A69
:101980004B4C4D4E4F505152535455565758595A2F
:10199000000000004FF0000845460CE014F805B0C8
:1019A000701E4044401B205C6055701E4044401B2C
:1019B00004F800B06D1C701E00EBD071B5EB610F28
:1019C000ECDD20460BB0BDE8F08F0FB430B585B02C
:1019D00009A800904FE008980078252806D00899BB
:1019E00011F8010B0891FFF719FE44E00898401C1C
:1019F00008900078642822D0732802D0782830D14B
:101A00000BE0009810C8009003E02078FFF706FE76
:101A1000641C20780028F8D128E0009820C80090A5
:101A2000102201A92846FFF763FF01AC03E02078EC
:101A3000FFF7F4FD641C20780028F8D116E0009828
:101A400020C800900A2201A92846FFF751FF01ACE7
:101A500003E02078FFF7E2FD641C20780028F8D12D
:101A600004E008990878FFF7D9FD00BF00BF089887
:101A7000401C089000BF089800780028ABD1009067
:101A800005B030BC5DF814FB044B188000BF034A5E
:101A9000121F128812F0800FF9D07047044C0040DA
:101AA00030B54821B1F1807F00D31DE021F07F40A7
:101AB000401E4FF0E022506150170F22002807DA35
:101AC00013071D0E094B00F00F04241F1D5503E0E2
:101AD00013071C0E064B1C5400BF00204FF0E022E1
:101AE00090610720106100BF30BD000018ED00E0DC
:101AF00000E400E01FB506208DF8000001208DF8FD
:101B0000010000208DF8020001208DF803006846D6
:101B100000F0BBF8FF20ADF80C0004208DF80F009A
:101B200003208DF80E0003A9504800F0DFFCFF20D1
:101B3000019000208DF8080010208DF80900012088
:101B40008DF80A0001A800F017F90021084600F0FE
:101B5000E1FD0121002000F0DDFD0221002000F068
:101B6000D9FD0321002000F0D5FD0421002000F064
:101B7000D1FD0521002000F0CDFD0621002000F060
:101B8000C9FD0721002000F0C5FD1FBD70B54FF451
:101B90008051374800F048FD28B14FF48051344857
:101BA00000F051FD04E04FF48051314800F049FD50
:101BB00001212E4800F02BFD78B92E48007C022828
:101BC00007DA2D4801682B48027C083040F82210C3
:101BD00017E000202749087413E02648007C0228FB
:101BE0000CDA254800682349097C224A42F8210082
:101BF0001046007C401C1146087402E000201D497C
:101C000008741C48007C02282BD11A48C068194966
:101C10000968441A1748006816498968451A154822
:101C20004168C0680E1A00BF00BF00BF134884425D
:101C30000ED210484461B54203D901200D494874C1
:101C400002E000200B49487400200A49087408E0AB
:101C500008484068074908600846C0688860012055
:101C60000874012000F0FFF870BD0000000801407A
:101C7000001401406C1800200000002080841E0029
:101C800031490143314A1160704770B5002100238A
:101C90000F22C4780CB32D4C246804F4E064C4F51E
:101CA000E064210AC1F10403CA40447804FA03F154
:101CB0008478144021430901254C0678A155047805
:101CC00004F01F050124AC4005786D114FF0E026AB
:101CD00006EB8505C5F8004109E0047804F01F050E
:101CE0000124AC401B4D0678761145F8264070BDA6
:101CF000194A0A400243154B1B1F1A60704739B13D
:101D0000124A121D12680243104B1B1D1A6006E096
:101D10000E4A121D126882430C4B1B1D1A6070473D
:101D2000042808D14FF0E021096941F004014FF087
:101D3000E022116107E04FF0E021096921F0040180
:101D40004FF0E022116170470000FA050CED00E051
:101D500000E400E080E100E080FFFF1F0020444934
:101D60000860091D0860091D0860091D08604148D8
:101D70003F4914310860704700213D498279002AAB
:101D80003AD00A46126803689A430B461A600A1D45
:101D9000126803689A430B1D1A60027911440A689D
:101DA00003681A430A60324A0832126803689A4389
:101DB0002F4B08331A601A1D126803689A432C4B84
:101DC0000C331A604279102A0ED11A1F1268036868
:101DD0001A43274B08331A601A1D126803681A4306
:101DE000234B0C331A600DE02149427911440A68F3
:101DF00003681A430A6005E0027911440A6803681F
:101E00009A430A6070470021016001710C21417101
:101E10000021817170471649103109680143144A45
:101E200010321160704701460020114A14321268C6
:101E30000A4201D0012000E0002070470C49143113
:101E400008607047014600200022094B1B6803EA26
:101E50000102074B14331B680B4202D00AB1012068
:101E600000E000207047024914310860704700000C
:101E700000040140FFFF0F0001460020FE4A1068E9
:101E800000F03800084310607047FB49096821F0F2
:101E90000801F94A11601146096801431160704751
:101EA000F549096821F01001F34A116011460968EB
:101EB000014311607047F148EF494860F0484860BD
:101EC0007047EE48EC494860ED4848607047EA4882
:101ED000006940F08000E84908617047E648006901
:101EE00040F08000E449086170470420E249C96875
:101EF00011F0010F01D001200EE0DF49C96811F097
:101F0000040F01D0022007E0DB49C96811F0100F6F
:101F100001D0032000E00420704700B502460423EE
:101F2000FFF7E3FF034603E0FFF7DFFF0346521E20
:101F3000012B01D1002AF7D102B90523184600BDB3
:101F400030B5044604254FF43020FFF7E6FF054680
:101F5000042D17D1C848006940F00200C649086145
:101F600008464461006940F0400008614FF43020A9
:101F7000FFF7D3FF0546C048006941F6FD710840F0
:101F8000BD490861284630BD10B504244FF4302007
:101F9000FFF7C3FF0446042C16D1B748006940F090
:101FA0000400B54908610846006940F04000086136
:101FB0004FF43020FFF7B1FF0446AF48006941F607
:101FC000FB710840AC490861204610BD00B50246CF
:101FD0000423FFF78AFF034603E0FFF786FF03466B
:101FE000521E012B01D1002AF7D102B90523184650
:101FF00000BD10B504244FF43020FFF7E7FF04467E
:10200000042C16D19C48006940F004009A490861EC
:102010000846006940F0400008614FF43020FFF7A7
:10202000D5FF04469448006941F6FB710840924987
:102030000861204610BD00208F49C96911F0020FC8
:1020400001D0012000E00020704730B5A525042410
:10205000FFF7F1FF00B100254FF43020FFF75DFFDF
:102060000446042C3AD185488349886084488860B6
:102070000846006940F0200008610846006940F009
:10208000400008614FF43020FFF747FF0446042C5E
:102090001BD17948006941F6DF7108407649086133
:1020A0000846006940F01000086176480580E002AB
:1020B000FFF733FF0446052C10D06F48006941F646
:1020C000EF7108406C49086108E0052C06D06A48A9
:1020D000006941F6EF71084067490861204630BD4C
:1020E000F0B504460D4604260027F002FFF715FF61
:1020F0000646042E22D16048006940F001005E4986
:1021000008612580F002FFF708FF0646042E0ED175
:10211000A71C280C3880F002FFF7FFFE0646564841
:10212000006941F6FE7108405349086106E05248D3
:10213000006941F6FE7108404F4908613046F0BD24
:1021400070B504460D460426F002FFF7E6FE06468B
:10215000042E11D14848006940F001004649086149
:102160002580F002FFF7D9FE06464348006941F694
:10217000FE71084040490861304670BD70B50546A3
:102180000E460424E002FFF7C8FE0446042C17D1D3
:102190003A48394988603A4888600846006940F002
:1021A000100008612E80E002FFF7B7FE0446052C00
:1021B00006D03148006941F6EF7108402E490861A8
:1021C000204670BD2DE9F04304464FF6FF763746B2
:1021D000B046B1460425E443E6B2C4F30727C4F38E
:1021E00007484FEA1469E802FFF797FE0546042DF9
:1021F00040D122482049886021488860084600690B
:1022000040F010000861FF2E06D01E4808300680FE
:10221000E802FFF782FE0546042D08D1FF2F06D005
:1022200018480A300780E802FFF777FE0546042DBC
:102230000AD1B8F1FF0F07D012480C30A0F8008087
:10224000E802FFF76AFE0546042D0AD1B9F1FF0F37
:1022500007D00C480E30A0F80090E802FFF75DFEB2
:102260000546052D06D00448006941F6EF71084087
:1022700001490861284607E0002002402301674524
:10228000AB89EFCD00F8FF1FBDE8F08330B5054600
:1022900004244FF43020FFF740FE0446042C41D1C3
:1022A0005E485F4988605F4888600846006940F082
:1022B000200008610846006940F0400008614FF4C2
:1022C0003020FFF72AFE0446042C22D1544800692E
:1022D00041F6DF710840524908610846006940F044
:1022E000100008611DB100204F49088002E0A520C0
:1022F0004D4908804FF43020FFF70FFE0446052CAF
:1023000010D04748006941F6EF7108404449086120
:1023100008E0052C06D04248006941F6DF7108400C
:102320003F490861204630BDF0B505460E461746C8
:1023300004243A483A4988603A488860E002FFF746
:10234000ECFD0446042C19D13548006940F010001A
:102350003349086147F0F800304328433249891C6B
:102360000880E002FFF7D9FD0446052C06D02C4872
:10237000006941F6EF710840294908612046F0BD27
:102380002748C069800870472548006A70470020C8
:102390002349096811F0200F01D0012000E000203E
:1023A000704729B11E4A126902431D4B1A6104E0AD
:1023B0001B4A126982431A4B1A617047014600207A
:1023C000012908D1164AD26912F0010F01D001206B
:1023D00008E0002006E0124AD2680A4201D001203B
:1023E00000E0002070470E49C860704704200C4987
:1023F000C96811F0010F01D001200EE00849C96839
:1024000011F0040F01D0022007E00549C96811F05E
:10241000100F01D0032000E004207047230167451E
:1024200000200240AB89EFCD00F8FF1F10B5044635
:10243000CA48844208D10121042000F023FB002176
:10244000042000F01FFB46E0C548844208D101216A
:10245000082000F017FB0021082000F013FB3AE0F1
:10246000C048844208D10121102000F00BFB00215C
:10247000102000F007FB2EE0BB48844208D1012168
:10248000202000F0FFFA0021202000F0FBFA22E0DB
:10249000B648844208D10121402000F0F3FA00211F
:1024A000402000F0EFFA16E0B148844208D1012143
:1024B000802000F0E7FA0021802000F0E3FA0AE033
:1024C000AC48844207D10121801500F0DBFA0021DD
:1024D000A01500F0D7FA10BD10B50121084600F094
:1024E000D1FA0021012000F0CDFA10BD2DE9F04114
:1024F000024600250026002000230024002791F832
:1025000003C00CF00F0591F803C01CF0100F03D0AE
:1025100091F802C04CEA050591F800C0BCF1000F2B
:1025200031D0146800202BE04FF0010C0CFA00F3BE
:10253000B1F800C00CEA03069E4220D183004FF0A0
:102540000F0C0CFA03F7BC4305FA03FC4CEA040435
:1025500091F803C0BCF1280F06D14FF0010C0CFA22
:1025600000FCC2F814C00AE091F803C0BCF1480FA7
:1025700005D14FF0010C0CFA00FCC2F810C0401C51
:102580000828D1D31460B1F800C0BCF1FF0F34DDCE
:10259000546800202EE000F1080C4FF0010808FA02
:1025A0000CF3B1F800C00CEA03069E4221D183006F
:1025B0004FF00F0C0CFA03F7BC4305FA03FC4CEA8E
:1025C000040491F803C0BCF1280F05D100F1080CF8
:1025D00008FA0CF8C2F8148091F803C0BCF1480F57
:1025E00007D100F1080C4FF0010808FA0CF8C2F806
:1025F0001080401C0828CED35460BDE8F0814FF60F
:10260000FF710180022181700421C1707047024670
:10261000002093680B4201D0012000E000207047A9
:102620000146886880B2704702460020D3680B429A
:1026300001D0012000E0002070470146C86880B248
:10264000704701617047416170470AB1016100E064
:1026500041617047C16070474FF480320A43826124
:102660008161826182698269704702460020424B23
:1026700018684FF68073184040EA021008433E4B3A
:10268000186070473D49C8617047F0B50A4600239D
:1026900000240021002500F00046B6F1004F02D1D1
:1026A000354EF16901E0344E7168C0F3034583B2E1
:1026B00000F44016B6F5401F08D121F070612E4E8F
:1026C000766826F070662C4F7E6012E000F480166B
:1026D000B6F5801F06D1032606FA05F4A14341F0A2
:1026E000706106E0460D360103FA06F6B14341F08B
:1026F000706122B1460D360103FA06F6314300F04F
:102700000046B6F1004F02D11B4EF16101E01A4EB6
:102710007160F0BD30B500228B071C0F0F2303FA48
:1027200004F2154B08338C1053F824309343124CA9
:1027300008348D1044F8253023468C1053F824308B
:102740008C07240F00FA04F423430B4C08348D103B
:1027500044F8253030BD0A49086070470008014040
:10276000000C01400010014000140140001801401D
:10277000001C0140002001400000014000002042F8
:10278000DC002042DB48006840F00100D9490860C5
:1027900008464068D8490840D6494860084600685D
:1027A000D6490840D34908600846006820F48020D4
:1027B00008600846406820F4FE0048604FF41F009F
:1027C00088607047CB49096821F48031C94A11609B
:1027D0001146096821F480211160B0F5803F03D0D3
:1027E000B0F5802F0ED106E0C249096841F480316E
:1027F000C04A116007E0BF49096841F4A021BD4A01
:10280000116000E000BF00BF704710B50146002214
:10281000002300204A11012A02D1B64C236806E0A9
:10282000022A02D1B34C236A01E0B24C636A01F080
:102830001F02012494401C4201D0012000E000202E
:1028400010BD70B500240025002600BF3120FFF721
:10285000DCFF0646641CB4F5A06F01D0002EF5D055
:102860003120FFF7D2FF08B1012500E000252846FE
:1028700070BD014600209F4A106820F0F80040EA31
:10288000C100106070479E490860704702460020F2
:10289000984B586820F47C1042EA01031843954B8A
:1028A0005860704796490866704701460020914A73
:1028B000506820F003000843506070478D4840681E
:1028C00000F00C007047014600208A4A506820F052
:1028D000F00008435060704701460020854A506868
:1028E00020F4E06008435060704701460020814AB0
:1028F000506820F4605040EAC1005060704729B130
:102900007C4A527A02437B4B5A7204E0794A527AEB
:102910008243784B5A7270477A4908607047014683
:102920000020744A506820F44040084350607047CB
:102930000021754A11706F4A82F82010012802D0D8
:10294000042808D103E001216F4A117004E0052139
:102950006D4A117000E000BF00BF70476B4908600E
:1029600070476449096A0143624A116270476749C6
:1029700044390860704730B500210022002400234C
:102980005C4D6D6805F00C0121B1042905D00829C2
:1029900023D105E05E4D056022E05D4D05601FE03E
:1029A000544D6D6805F47012524D6D6805F4803415
:1029B000022505EB92421CB9564D554305600BE0CC
:1029C0004C4D6D6815F4003F03D0524D55430560E2
:1029D00002E04F4D5543056002E04D4D056000BFDC
:1029E00000BF444D6D6805F0F00109094A4D6B5C6C
:1029F0000568DD4045603F4D6D6805F4E061090AFA
:102A0000454D6B5C4568DD4085603A4D6D6805F469
:102A10006051C90A404D6B5C4568DD40C560354D6D
:102A20006D6805F44041890B3C4D6B5CC568B5FB96
:102A3000F3F5056130BD29B12E4A526902432D4B91
:102A40005A6104E02B4A526982432A4B5A6170470B
:102A500029B1284A92690243264B9A6104E0254A2B
:102A600092698243234B9A61704729B1214AD26906
:102A70000243204BDA6104E01E4AD26982431D4BB7
:102A8000DA61704729B11B4AD2680243194BDA60F8
:102A900004E0184AD2688243164BDA60704729B1C5
:102AA000144A12690243134B1A6104E0114A126975
:102AB0008243104B1A6170471449403908607047CF
:102AC0000F49C86470470B49C87170470948406A8C
:102AD00040F0807007494862704701460020054A6F
:102AE00092680A4201D0012000E0002070470149AD
:102AF00088727047001002400000FFF8FFFFF6FEEA
:102B000000004242D800424220100240800442426B
:102B100000127A0000093D00480000205800002003
:102B200010B50446BE48844208D101218014FFF745
:102B3000A9FF0021A014FFF7A5FF16E0B9488442C1
:102B400008D101210014FFF7AAFF00212014FFF78C
:102B5000A6FF0AE0B448844207D10121C013FFF761
:102B60009EFF0021E013FFF79AFF10BD10B5002271
:102B7000028802F441520B884C8823438C882343FB
:102B8000CC8823430C8923434C8923438C892343DA
:102B9000CC8923431A430280838B4FF2FF74234076
:102BA00083830B8A038210BD2DE9F04F85B0054663
:102BB0000C464FF0000902274FF000084FF0010BC0
:102BC0000026B246A88B4FF240010840A88302209D
:102BD0002884B5F81C90A068022801D100BF38E015
:102BE000A08810B94FF0010B01E04FF0020B8D48A7
:102BF000854200D100E000BF6846FFF7BCFEDDF86B
:102C000000A0E088B0F5007F0AD14FEA1A2000EB5F
:102C100080004000A168B0FBF1F0401D86B20BE0DF
:102C20004FEA4B10BAFBF0F000EB80004000A168C7
:102C3000B0FBF1F0401D86B20A20B6FBF0F606F0BC
:102C40000108A6EB0800C0F34F074FF6FF7000EA3B
:102C50000828022F01DBFF2F02DD02274FF00008BA
:102C6000E08840EA080038432884A088A189084306
:102C7000618808432188084340F4006040EA09095C
:102C8000A5F81C9005B0BDE8F08F002101804180BF
:102C90008180C180018141818181C18107210182BF
:102CA00070470021018041808180C18002218160C4
:102CB00000218181704721B1028842F040020280E8
:102CC00004E002884FF6BF731A400280704721B1BA
:102CD000828B42F48062828304E0828B4FF6FF3362
:102CE0001A408283704730B5002400230C1101255F
:102CF000A540ABB21AB185881D43858002E0858866
:102D00009D43858030BD1AB183880B43838002E0E8
:102D100083888B438380704781817047014688890F
:102D20007047A1F57E42FF3A04D0028842F48072D7
:102D3000028004E002884FF6FF631A400280704769
:102D400021B1828842F00402828004E082884FF63A
:102D5000FB731A408280704702884FF2FF731A405B
:102D6000028002880A4302807047018841F4805142
:102D70000180704721B1028842F40052028004E0D1
:102D800002884DF6FF731A40028070470246002009
:102D9000012901D0108B00E0908A70470146088A13
:102DA0007047B1F5804F04D1028842F4804202801E
:102DB00004E002884BF6FF731A4002807047024617
:102DC000002013890B4201D0012000E00020704751
:102DD000CA4302817047F0B5024600200024002358
:102DE000002501F00F070126BE40B4B20B110126E9
:102DF0009E40B3B2968806EA03051689264202D0A1
:102E00000DB1012000E00020F0BD10B5002201F05E
:102E10000F040123A3409AB2D343038110BD0000E5
:102E20000030014000380040003C004010B504462E
:102E3000FE48844208D10121C014FFF723FE00217F
:102E4000E014FFF71FFEC4E0B4F1804F08D1012168
:102E50000846FFF724FE00210120FFF720FEB8E01E
:102E6000F348844208D101210220FFF718FE002117
:102E70000220FFF714FEACE0EE48844208D10121A5
:102E80000420FFF70CFE00210420FFF708FEA0E05D
:102E9000E948844208D101210820FFF700FE002103
:102EA0000820FFF7FCFD94E0E448844208D10121AA
:102EB0001020FFF7F4FD00211020FFF7F0FD88E05F
:102EC000DF48844208D101212020FFF7E8FD0021DE
:102ED0002020FFF7E4FD7CE0DA48844208D101219C
:102EE0004014FFF7CFFD00216014FFF7CBFD70E029
:102EF000D548844209D10121C804FFF7C3FD002150
:102F00004FF40020FFF7BEFD63E0D048844209D1B2
:102F100001210805FFF7B6FD00214FF48010FFF7EF
:102F2000B1FD56E0CA48844209D101214805FFF7A6
:102F3000A9FD00214FF40010FFF7A4FD49E0C548AA
:102F4000844208D101214020FFF7A9FD0021402043
:102F5000FFF7A5FD3DE0C048844208D10121802053
:102F6000FFF79DFD00218020FFF799FD31E0BB4870
:102F7000844208D101218015FFF791FD0021A015A1
:102F8000FFF78DFD25E0B648844209D101210804F0
:102F9000FFF778FD00214FF48030FFF773FD18E054
:102FA000B048844209D101214804FFF76BFD00219C
:102FB0004FF40030FFF766FD0BE0AB48844208D1C8
:102FC00001218804FFF75EFD00214FF48020FFF708
:102FD00059FD10BD00220288944B98420ED0994BA7
:102FE00098420BD0B0F1804F08D0914B984205D059
:102FF000904B984202D0904B984204D14FF68F7379
:103000001A404B881A438D4B984207D08C4B9842FC
:1030100004D04FF6FF431A40CB881A4302808B88B6
:1030200083850B880385814B98420BD0854B984252
:1030300008D08B4B984205D08A4B984202D08A4BDD
:10304000984201D10B7A038601238382704770B5C1
:10305000002400220023058C4FF6FE7635400584BF
:10306000028C8388048B4FF68F752C40B51E2C4044
:103070000D882C43751E2A400D892A434D882A430A
:103080006A4DA8420BD06F4DA84208D0744DA8429B
:1030900005D0744DA84202D0734DA84213D14FF60B
:1030A000F7752A404D892A434FF6FB752A408D88D3
:1030B0002A434FF6FF652B404FF6FF552B408D8975
:1030C0002B43CD892B4383800483CD88858602845E
:1030D00070BD70B5002400220023058C4FF6EF76FA
:1030E00035400584028C8388048B48F6FF752C409C
:1030F0004FF6FF452C400D884FF6FF7606EA052572
:103100002C434FF6DF752A400D8906EA05152A4340
:103110004D8806EA05152A43444DA84202D0494D80
:10312000A8421DD14FF67F752A404D894FF6FF7694
:1031300006EA05152A434FF6BF752A408D8806EA30
:1031400005152A434FF6FF352B404FF2FF752B40F4
:103150008D8906EA85052B43CD8906EA85052B4333
:1031600083800483CD880587028470BD70B50024F8
:1031700000220023058C4FF6FF6635400584028C43
:103180008388848B4FF68F752C404FF6FC752C404E
:103190000D882C434FF6FF552A400D894FF6FF76D8
:1031A00006EA05252A434D8806EA05252A431F4DD0
:1031B000A84202D0234DA8421DD14FF2FF752A40EC
:1031C0004D894FF6FF7606EA05252A434FF6FF356F
:1031D0002A408D8806EA05252A434EF6FF752B40C6
:1031E0004DF6FF752B408D8906EA05152B43CD89D9
:1031F00006EA05152B4383808483CD888587028466
:1032000070BD70B5002200230024058C4EF6FF76B9
:1032100035400584038C8488828B48F6FF752A40EC
:103220004FF6FF452A400D8820E00000002C0140A9
:103230000004004000080040000C00400010004066
:103240000014004000340140004C01400050014097
:103250000054014000180040001C004000200040C5
:103260000040014000440140004801404FF6FF7615
:1032700006EA05252A434DF6FF752B400D8906EA1F
:1032800005352B434D8806EA05352B43FA4DA842F8
:1032900002D0FA4DA84208D14BF6FF752C408D891B
:1032A0004FF6FF7606EA85152C4384808283CD880D
:1032B000A0F84050038470BD828B4FF2FF331A4058
:1032C0008283828B4FF6FF7303EA01231A438283C2
:1032D0007047F0B50C461546002200210026078CE9
:1032E0004EF6FF7C07EA0C070784828B018C4FF6B1
:1032F000FF7707EA043640F6FF473A404FF6FF777C
:1033000007EA05273A434FF6FF7707EA03373A43C0
:10331000D94FB8420ED0D94FB8420BD0B0F1804F40
:1033200008D0D74FB84205D0D64FB84202D0D64FBA
:10333000B84206D14DF6FF77394046F480573943FD
:1033400005E047F6FF57394044F4805739438283FC
:103350000184F0BD828B4FF6F3731A408283828B17
:103360000A4382837047F0B50C46154600220021BF
:103370000026078C4FF6FF6C07EA0C070784828B48
:10338000018C4FF6FF7707EA04264FF60C773A4098
:103390004FF6FF7707EA03172F433A43B64FB84279
:1033A0000ED0B64FB8420BD0B0F1804F08D0B44F1A
:1033B000B84205D0B34FB84202D0B34FB84206D19D
:1033C0004FF6FF57394046F48077394305E04FF216
:1033D000FF57394044F48077394382830184F0BD3C
:1033E000028B4FF2FF331A400283028B4FF6FF73BA
:1033F00003EA01231A4302837047F0B50C461546D1
:10340000002200210026078C4FF6EF7C07EA0C070C
:103410000784028B018C4FF6FF7707EA041640F60B
:10342000FF473A404FF6FF7707EA03373A434FF634
:10343000FF7707EA05273A438F4FB8420ED08F4FE8
:10344000B8420BD0B0F1804F08D08D4FB84205D0B4
:103450008C4FB84202D08C4FB84206D14FF6DF777E
:10346000394046F01007394305E04FF65F773940A1
:1034700044F01007394302830184F0BD028B4FF6FC
:10348000F3731A400283028B0A4302837047F0B53C
:103490000C46154600220021068C4FF6FE773E4072
:1034A0000684028B018C4FF60C7632407E1C06EAB5
:1034B00003162E433243704EB0420ED06F4EB042D0
:1034C0000BD0B0F1804F08D06D4EB04205D06D4E9C
:1034D000B04202D06C4EB04206D14FF6FD7631407C
:1034E00044F00106314305E04FF6F576314044F0F3
:1034F0000106314302830184F0BD70B505460C46D8
:103500005D4885420ED05D4885420BD0B5F1804FB5
:1035100008D05B48854205D05A48854202D05A48B7
:10352000854200D100E000BF208850B92389A288DD
:1035300061882846FFF7ABFFE1882846FFF79EFF2A
:1035400025E0208804280AD12389A288618828469A
:10355000FFF753FFE1882846FFF742FF17E0208876
:1035600008280AD12389A28861882846FFF7FBFE34
:10357000E1882846FFF7EEFE09E02389A2886188EA
:103580002846FFF7A6FEE1882846FFF795FE70BDA6
:103590002DE9F04105460C4600260127608808B950
:1035A000022600E00026A088012801D1022700E0C1
:1035B00001272088A0B92389A28861882846FFF7BF
:1035C00066FFE1882846FFF759FF23893A463146CE
:1035D0002846FFF712FFE1882846FFF701FF13E0B6
:1035E0002389A28861882846FFF707FFE1882846DB
:1035F000FFF7F6FE23893A4631462846FFF747FF94
:10360000E1882846FFF73AFFBDE8F0810A884B8839
:103610001A438B881A43CB881A430B891A434B8968
:103620001A438B891A43A0F8442070474FF6FF7164
:10363000818000210180C18041800172704700219A
:10364000018041808180C180018141818181C1816E
:103650007047002101804180012181800021C180CB
:10366000018170470021018041808180C1800181FA
:103670004181818170470000002C014000340140ED
:103680000004004000080040000C004021B1028806
:1036900042F00102028004E002884FF6FE731A40F5
:1036A0000280704731B1B0F8442042F40042A0F8E3
:1036B000442005E0B0F84420C2F30E02A0F84420F4
:1036C00070471AB183890B43838102E083898B435E
:1036D000838170478182704741EA0203A0F8483035
:1036E00070471AB183890B43838102E083898B433E
:1036F0008381704701894FF6F8721140018170474C
:103700000A46002101894FF68F7319401143018148
:10371000704730B504460D4629462046FFF7F0FFB6
:10372000208940F00700208130BD2DE9F04104469A
:103730000D4616461F46602D06D13B4601223146F6
:103740002046FFF75AFE05E03B460122314620465F
:10375000FFF79DFE29462046FFF7D2FF208940F063
:1037600007002081BDE8F08130B50C4600210189B9
:10377000C9B24FF6FF7505EA0325154325432943D2
:10378000018130BD2DE9F04105460E4617469846A9
:10379000002443463A4631462846FFF7E5FF2C8988
:1037A0004FF6F870044044F007044FF68F70044061
:1037B00044F070042C81BDE8F081F0B504460D465C
:1037C00016461F463B46324629462046FFF7CCFFA9
:1037D000208940F480402081F0BD018582827047BD
:1037E0000A46002101884FF68F731940114301806A
:1037F0007047F0B50C4615461E46002100220023F6
:103800000189028B038C4FF6F877394021434FF63C
:10381000FC473A4040F201173A434FF6DD773B4010
:103820004FF6FF7707EA06172F433B4301810283D8
:103830000384F0BD0A460021018B4FF68F731940B7
:103840001143018370470A460021018B48F6FF733C
:1038500019404FF6FF7303EA0223194301837047AF
:103860000A460021818B4FF68F73194011438183E3
:1038700070470A460021818B48F6FF7319404FF6C6
:10388000FF7303EA022319438183704721B1028841
:1038900042F08002028004E002884FF67F731A40F3
:1038A0000280704721B1828842F00402828004E0E5
:1038B00082884FF6FB731A408280704721B182885C
:1038C00042F00802828004E082884FF6F7731A40C3
:1038D0008280704721B1828842F00102828004E038
:1038E00082884FF6FE731A40828070470A46002194
:1038F000018B4FF6F77319401143018370470A4655
:103900000021018B4FF2FF7319404FF6FF7303EA5A
:1039100002231943018370470A460021818B4FF629
:10392000F77319401143818370470A460021818B48
:103930004FF2FF7319404FF6FF7303EA0223194356
:10394000818370470A460021018B4FF6FB731940B3
:103950001143018370470A460021018B4FF6FF3364
:1039600019404FF6FF7303EA02231943018370479E
:103970000A460021818B4FF6FB7319401143818366
:1039800070470A460021818B4FF6FF3319404FF6EE
:10399000FF7303EA02231943818370470A4600211B
:1039A000018B4FF67F7319401143018370470A461C
:1039B0000021018BC1F30E014FF6FF7303EA0223CE
:1039C0001943018370470A460021818B4FF67F73AC
:1039D00019401143818370470A460021818BC1F34E
:1039E0000E014FF6FF7303EA0223194381837047E8
:1039F0000A460021018C4FF6FD73194011430184E2
:103A000070470A460021018C4FF6F77319401143A5
:103A1000018470470A460021018C4FF6DF7319407C
:103A20004FF6FF7303EA02131943018470470A46F5
:103A30000021018C4FF67F7319404FF6FF7303EAA4
:103A400002131943018470470A460021018C4FF686
:103A5000FF5319404FF6FF7303EA02231943018411
:103A600070470A460021018C4FF2FF7319404FF650
:103A7000FF7303EA02231943018470470A460021B9
:103A8000018C4DF6FF7319404FF6FF7303EA0233C2
:103A900019430184704730B5002301248C40A3B240
:103AA000048C9C430484048C02FA01F5ADB22C43CF
:103AB000048430BD30B5002304248C40A3B2048CB0
:103AC0009C430484048C02FA01F5ADB22C430484B7
:103AD00030BD70B50346002000241846183001257B
:103AE0008D40ACB21D8CA5431D8409B1082909D1B4
:103AF00000EB6100056825F0700505600568154359
:103B000005600EE00D1FC5F34E052844056825F439
:103B1000E045056005684FF6FF7606EA0226354364
:103B2000056070BD21B1028842F00202028004E00B
:103B300002884FF6FD731A400280704721B1028857
:103B400042F00402028004E002884FF6FB731A4040
:103B50000280704721B1828842F08002828004E0B6
:103B600082884FF67F731A408280704702884FF632
:103B7000F7731A40028002880A43028070478288E5
:103B80004FF68F731A40828082880A438280704782
:103B900002894FF6F8731A40028102890A430281B2
:103BA000704702894FF67F731A40028102890A43E7
:103BB0000281704781847047818570478186704794
:103BC0000187704781877047A0F8401070470288CE
:103BD0004FF6FF431A40028002880A430280704772
:103BE0000146888E70470146088F70470146888FCE
:103BF00070470146B1F8400070470146888C704715
:103C00000146088D704702460020138A0B4201D0FE
:103C1000012000E000207047CA430282704730B59F
:103C20000246002000230024158A05EA0103958935
:103C300005EA010413B10CB1012000E0002030BD01
:103C4000CA4302827047000010B50446FB48844214
:103C500009D101218803FEF715FF00214FF48040B0
:103C6000FEF710FF32E0F648844209D101214804F2
:103C7000FEF715FF00214FF40030FEF710FF25E09E
:103C8000F048844209D101218804FEF708FF002191
:103C90004FF48020FEF703FF18E0EB48844209D17F
:103CA0000121C804FEF7FBFE00214FF40020FEF7BF
:103CB000F6FE0BE0E548844208D101210805FEF735
:103CC000EEFE00214FF48010FEF7E9FE10BD2DE955
:103CD000F04786B005460E460024A24600BFA14626
:103CE0000027B08900B100BF2F462C8A4CF6FF7028
:103CF0000440F08804432C82AC894EF6F310044053
:103D0000B08831890843718908430443AC81AC8A87
:103D10004FF6FF400440B0890443AC8201A8FEF78F
:103D20002AFEC648874202D1DDF810A001E0DDF886
:103D30000CA0A88910F4004F08D00AEBCA0000EBD1
:103D40000A1031684900B0FBF1F807E00AEBCA003D
:103D500000EB0A1031688900B0FBF1F86420B8FB71
:103D6000F0F004012009642101FB1089A88910F4F6
:103D7000004F08D0322000EBC900B0FBF1F000F09A
:103D80000700044308E0322000EB09106421B0FB77
:103D9000F1F000F00F0004432C8106B0BDE8F0877D
:103DA0004FF41651016000218180C18001810C21F6
:103DB000418100218181704710B502460020108AA0
:103DC0004FF2FF0318400B884C8823438C88234311
:103DD000CC8823431843108210BD0021018041800C
:103DE0008180C180704721B1828942F40052828172
:103DF00004E082894DF6FF731A4082817047F0B566
:103E000003460024002600250020A1F510676A3F24
:103E100000D100BF1846C1F3421401F01F0601276C
:103E200007FA06F5012C01D10C3004E0022C01D177
:103E3000103000E014301AB107682F43076002E029
:103E40000768AF430760F0BD1AB1838A0B438382D2
:103E500002E0838A8B4383827047028A4FF6F073B5
:103E60001A400282028A0A430282704782894FF214
:103E7000FF731A40828182890A438281704721B18F
:103E8000828942F00202828104E082894FF6FD734A
:103E90001A4082817047028A4FF6DF731A4002820D
:103EA000028A0A430282704721B1028A42F48042A8
:103EB000028204E0028A4BF6FF731A4002827047C6
:103EC000C1F308028280704701468888C0F3080069
:103ED0007047818941F0010181817047028BD2B224
:103EE0000283028B42EA012202837047028B02F4B2
:103EF0007F420283028B0A430283704721B1828A88
:103F000042F02002828204E0828A4FF6DF731A4078
:103F10008282704721B1828A42F01002828204E0DC
:103F2000828A4FF6EF731A408282704721B1828AEB
:103F300042F00802828204E0828A4FF6F7731A4048
:103F40008282704721B1828942F40042828103E07B
:103F50008289C2F30E028281704721B1828A42F4C3
:103F60000062828204E0828A4FF2FF731A408282EA
:103F70007047828A4FF6FB731A408282828A0A4314
:103F80008282704721B1828A42F00202828204E07A
:103F9000828A4FF6FD731A408282704702460020E3
:103FA000B1F5007F00D100BF13880B4201D0012082
:103FB00000E00020704701F40072B2F5007F00D1EC
:103FC00000BFCA430280704770B502460024002338
:103FD00000250020A1F510666A3E00D100BFC1F3A4
:103FE000421501F01F03012606FA03F3012D02D149
:103FF0009689334006E0022D02D1168A334001E053
:10400000968A33400C12012606FA04F416883440CE
:1040100013B10CB1012000E0002070BD10B50022EA
:104020000023A1F510646A3C00D100BF0A120124EC
:104030009440A3B2DC43048010BD0000003801406E
:104040000044004000480040004C00400050004048
:1040500000210020674A126842F48032654B1A60E2
:1040600000BF644A126802F40030491C10B9B1F56F
:10407000A06FF6D15F4A126812F4003F01D0012010
:1040800000E00020012842D15B4A126842F0100291
:10409000594B1A601A46126822F003021A601A4637
:1040A000126842F002021A60524A5268514B5A603A
:1040B0001A4652685A601A46526842F480625A6040
:1040C0001A46526822F47C125A601A46526842F428
:1040D000E8125A601A46126842F080721A6000BFF5
:1040E000444A126812F0007FFAD0424A526822F025
:1040F0000302404B5A601A46526842F002025A606C
:1041000000BF3C4A526802F00C02082AF9D17047FD
:1041100010B5FFF79DFF10BD10B53648006840F0A0
:104120000100344908600846406834490840314974
:10413000486008460068324908402E490860084631
:10414000006820F4802008600846406820F4FE00E3
:1041500048604FF41F008860FFF7DAFF4FF00060FF
:104160002849086010BD10B5002100200022214B15
:104170005B6803F00C0121B1042906D0082928D17D
:1041800007E0214B214C236027E01F4B1F4C23608D
:1041900023E0184B5B6803F47010164B5B6803F464
:1041A0008032022303EB904022B9194B4343174C52
:1041B00023600DE00F4B5B6813F4003F04D0144BF9
:1041C0004343124C236003E00F4B43430F4C2360E7
:1041D00003E00D4B0D4C236000BF00BF054B5B6837
:1041E000C3F303130B4CE15C084B1B68CB40074C3B
:1041F000236010BD00100240002002400000FFF8C4
:10420000FFFFF6FE08ED00E000127A005C000020DF
:1042100000093D006000002006488047064800472E
:10422000FEE7FEE7FEE7FEE7FEE7FEE7FEE7FEE766
:10423000FEE7FEE7194100083101000840EA0103EA
:104240009B0703D009E008C9121F08C0042AFAD24C
:1042500003E011F8013B00F8013B521EF9D2704710
:10426000064C074D06E0E06840F0010394E80700C3
:1042700098471034AC42F6D3FBF75EFFA442000827
:10428000C442000802E008C8121F08C1002AFAD17F
:1042900070477047002001E001C1121F002AFBD1C6
:1042A00070470000C44200080000002070000000B9
:1042B000844200083443000870000020C01C000045
:1042C0009442000800000000000000000000000010
:1042D00000000000030000000000000000000000DB
:1042E00000000000000000000000000000000000CE
:1042F00000000000000000000000000000000000BE
:1043000000000000000000000000000000000000AD
:104310000102030401020304060708090204060857
:1043200000A24A0400000000000000000102030493
:04433000060708096B
:0400000508000131BD
:00000001FF
