:0400000081311F2902
:1000080080312700961D3E282000470803193E2806
:10001800470303193E288D193C286C1B1E28C6016E
:100028004708023A031D1B280830C7001C28C703CD
:100038006C163C28CA01C9012B28EC1F3C28C408AF
:10004800031D29280230C4001C28C4031C284708A3
:10005800033A03192128073A03193C28013A0319DE
:100068003C28033A03193C28013A03193C280F3A63
:10007800270096112700961E7728200047080319A5
:1000880077284703031977288D1A75286C1B57287A
:10009800C6014708083A031D54280230C7005528EE
:1000A800C70A6C167528CA01C9016428EC1F75288F
:1000B8004408023A031D6228C4015528C40A552879
:1000C8004708033A03195A28073A03197528013AC9
:1000D80003197528033A03197528013A0319752875
:1000E8000F3A270096122700161E982820000D1A8E
:1000F8009428ED146C1B8428C6016C16C50194283D
:10010800CA01C901EC1B8A28EC179328EC1347088D
:10011800083A031D92280330C7009328C70A6C16B3
:100128000D1AED10270016122000111C0A2946305E
:100138004602031C6C1BAE28C60AED1CAC28C50A77
:100148004508323A031DD728C5016C176D14D72806
:10015800C501D72832304A02031CB7286430490247
:10016800031C6C1FD728ED1CC228CA0AC9014A08FB
:10017800323A031DD7286C13EC16D728CA01C90ACE
:100188004908643A031DD7286C130230C7006C165F
:10019800D7281E3048020318D328C80ADE28C80109
:1001A800C70A6C16DE284708003A0319CD28013A19
:1001B8000319CD2811109E30970058309600EC1482
:1001C8006F08053A031DEC28B20A0319B30AEE2892
:1001D800B201B301EB1CF328A60A0319A70A6B1D89
:1001E800F828A80A0319A90A2B082A040319FF28C2
:1001F800AA0A0319AB0A3108300403190629B00A00
:100208000319B10AC20A4008031DC00A911C172924
:1002180091106C1D1729C30A3F084302031C1629B5
:100228000C1417290C10931C1C29931004309006E9
:0C02380093199311090088018331872B72
:10040000003445346E345F344334683461347234BC
:10041000673465343A342034783478342E34783480
:1004200056340034453471345F34433468346134B5
:100430007234673465343A342034783478342E3466
:1004400078345634003446346C346F345F3463345B
:10045000683461347234673465343A3478347834CB
:100460002E3478345634003455344E3444344534C4
:100470005234203456344F344C343A3420347834A7
:1004800078342E347834563400344E34493447347A
:1004900048345434203456344F344C343A342034B5
:1004A000783478342E3478347634003442347634E8
:1004B000783478342E3478347634203453346F34AE
:1004C0006334FF34FF34FF34FF3400346C3463345E
:1004D000783478342E347834413420346C346F34AA
:1004E000783478342E3478344134003452344534FE
:1004F000203455344E344434453452343A34203464
:10050000783478342E347834563400344F345634BA
:1005100045345234203456344F344C343A34203439
:10052000583458342E345834563400345234453408
:1005300020344F345634453452343A3420347834ED
:1005400078342E34783456340034443441345934B9
:10055000203456344F344C343A34203478347834A0
:100560002E34783456340034423461347434743464
:1005700065347234793420347434793470346534A9
:100580000034533465346C34663420347334653449
:100590007434743469346E346734003447346534E9
:1005A0006C3420346234613474347434653472349D
:1005B000793400344F34703465346E34203463340D
:1005C00065346C346C3400348C31532482315B08D4
:1005D000DD005A08DC00EB1C6B19F02AEB1D282B00
:1005E0000D1025085D02031DF72A24085C0203187C
:1005F0000C2BEB17FA303F02031C052B2100911046
:100600002000EC116C110C100C2BEC190A2B2100A2
:10061000342382310A30BF075D082502031D122BE7
:100620005C0824020318080009303F020318202B3D
:10063000210091102000EC116C110C14EB13080038
:10064000EB17EC19252B21003423F630BF070800E7
:10065000EC1D2F2B210091102000EC116C11C30117
:10066000BF010D14EB13080091142000EC156C155C
:100670000800CE34DA34C134003401342F3401346C
:100680001C34013439340134873401346334013487
:100690005F34013455340134473401347D340F3430
:1006A00084340334003402345E3402343834023487
:1006B000723402340E340334C6340234BE3402348D
:1006C000AA3402348E3402342734203405340D34F5
:1006D00043344834453443344B3449344E3447343E
:1006E0002E342E342E340034313432345634203407
:1006F000533459345334543445344D34003457341E
:1007000045344C3443344F344D3445340034EB01DC
:10071000EC01ED0120308400003085002B30833166
:10072000A22383310330EF00393084008330850009
:10073000A0308600003087004E308331A82320008F
:1007400088314328640080010131890BA32B0034D8
:0C075000FE0012001E00FE0BA92B00345E
:10101400FA00220097017A0821009D0090309E007A
:101024001430F000F101012388319D149D18182813
:101034001B08FB00FC011C08F800F9010830F83516
:10104400F90D890B21287808FB047908FC04283061
:101054009D001430F000F10101237C08F7007B08A7
:10106400F60008003830A02188310C30A0218831E6
:101074000630A02188310130A0218831BD26883175
:10108400C529EC2488318325883134208831803087
:10109400A0218831E630B400B501350869268831CD
:1010A4007C218831CF30B400B5013508F80034080C
:1010B400F700F901AB21883122000E16DD218831B9
:1010C4006400A9248831EF01EF0ABF27883119236E
:1010D4008831D8248831333020004202031C75281B
:1010E400C20133228831EC1C7B28EC108231E422CB
:1010F40088316C1E53296C123A29DB30B400B501D7
:10110400350869268831FA0A7C21883153295630FA
:10111400B40082305C2688317C2188316630B4008A
:10112400823080268831AB2188315329B430B40011
:1011340082305C2688317C2188314408A03E8600B8
:1011440087010108B400823080268831AB218831C0
:101154006C1F5329EC1FB22840306B21883153296E
:1011640020306B21883153290130B40082305C2651
:1011740088317C2188311230B40082308026883155
:10118400AB2188316C1F5329EC1FCC284E306B21C6
:10119400883153290E306B21883153292330B40010
:1011A40082305C2688317C2188312100210820008E
:1011B400B400823080268831AB2188316C1F5329DA
:1011C400EC1FE8284C306B21883153290E306B21F9
:1011D400883153293430B40082305C2688317C2134
:1011E40088317630B400823080268831AB21883152
:1011F4006C1F5329EC1F02294D306B218831532970
:101204000E306B21883153298630B40082305C263D
:1012140088317C2188319630B40082308026883130
:10122400AB2188316C1F5329EC1F1C294C306B21D6
:10123400883153290D306B2188315329A530B400EE
:1012440082305C2688317C2188314530B40082307C
:1012540080268831AB2188316C1F5329EC1F362935
:101264004E306B21883153290C306B21883153293E
:101274004708013A03197F28033A03198928013AD8
:1012840003199828073A0319B628013A0319D028F4
:10129400033A0319EC28013A031906290F3A0319F2
:1012A40020294608463A031D5B29C60A0830A021B6
:1012B4008831EC1E6229EC126C160230C7006C13E4
:1012C4006C1B6D1C62286D106C160330C700EC1388
:1012D4006228F700F8010F30A02188310230A021E4
:1012E400883177087802031808001430A021883167
:1012F400F80A73297A08031986290130A021883154
:10130400BD268831C52188310C30A0218831790867
:10131400803EA02188317708840078088500000881
:10132400003803190800770884007808850000084D
:101334009E248831F70A0319F80A8D29F6008E10C5
:101344000E118F003230F000F101C5218E158E117F
:1013540008007908C03EA02188310C30A0218831D2
:10136400770884007808850000080038031908000D
:10137400770884007808850000089E248831F70ADD
:101384000319F80AB2297108F3007008F20073080F
:101394007204031908000A30F400F5010130F40264
:1013A4000030F53B750874040130031DD129F202A5
:1013B4000030F33BC929532488315B08B7005A082D
:1013C400B600013037028730031936020318EC29BE
:1013D400A330FB29033037020E30031936020318F9
:1013E400FC2902303702013003193602031CFC29A0
:1013F400B930BD00FA2288315B08AF005A08AE004C
:10140400532488315B08AD005A08AC002D08AA2685
:101414008831E52288317008A03EDC00F630713D49
:10142400DD00A2268831E52288315D087102031DA2
:101434001D2A5C087002031C282A2D08AA2688315C
:10144400E5228831A2268831E522883121265B08ED
:10145400B9005A08B800A201A301A001A101C20168
:1014640008006C19682AFA303F02031C4A2A0D143A
:10147400C830F000F10101238831FA2288315B0879
:10148400E3005A08E2006308BB006208BA000D10CA
:10149400BF08031D682A0D14C008031D5D2A0C1023
:1014A400E830F0000330F10001238831FA2288315A
:1014B40076268831682A0C1064304002031C682A9E
:1014C400C001FA228831762688316B166C1D782A81
:1014D4000D146C110C10C830F000F1010123883197
:1014E400FA228831762688316C150D1000303B02C3
:1014F400193003193A020318812A6C14832A6C10D8
:10150400EB139A268831E52288318F268831862686
:101514008831E5228831B12688313D08123E8600A3
:101524008701403FE000413FE1005F086102031D85
:101534009D2A5E0860020318A32A6B12C0010D17CE
:101544006B149A268831E52288318F2688318626C5
:101554008831E5228831B12688310E305F02663049
:1015640003195E02031C6B1CBC2AC008031DBC2AA1
:10157400C001C00A6B1E08006B12C0013D08143E76
:1015840086008701403FDC00413FDD009A26883118
:10159400E52288317008DE007108DF008626883174
:1015A400E522883170085E07E00071085F3DE100C4
:1015B4005D086102031DE02A5C086002031808004C
:1015C4000D136B100800F401F501701CED2A72086C
:1015D400F4077308F53DF235F30DF136F00C71089C
:1015E4007004031DE72A7508F1007408F000080070
:1015F400213034254C08DB004B08DA000800710860
:10160400F3007008F20073087204031908000A302A
:10161400F400F5010130F4020030F53B7508740460
:101624000130031D0D2BF2020030F33B052B3B2C44
:10163400C701532488315B08B7005A08B600C22694
:1016440088315A248831BE00EB106F26BC01080093
:101654004708023A031D342B0B306B218831FF30CD
:101664009E2488313C0303193C2BEB106F268831F0
:10167400BC01BC0A6C1C482B3D080C3E4D2688312D
:10168400EB18622BEB14A601A701622BEB10A60149
:10169400A701532488315B08B700642688313A26B1
:1016A400883137086102031D592B3608600203187C
:1016B400622B3708F1003608F0005A248831BE0046
:1016C4008C302702A03003192602031C0800EB10FB
:1016D400A601A7016430F000F101012388315324ED
:1016E40088315B08B700642688313A268831370888
:1016F4006102031D7F2B36086002031808003708B7
:10170400F1003608F0005A24BE0008003C08023AF2
:101714000319912BEB106F2688310230BC006C1C2E
:10172400AC2B3D080E3E4D2688316B199C2B6B1556
:10173400A801A90153248831942688313A26883196
:101744003702031DA72B600836020318B82BBE010D
:10175400BE0AB82B6B11A801A90153248831B826FD
:101764008831C22688315A248831BE008C3029023F
:10177400A03003192802031C08006B11A801A90159
:101784006430F000F1010123883153248831B826F4
:101794008831812B3C08033A0319D52BEB106F26B3
:1017A40088310330BC006C1CAC2B3D080E3E4D262A
:1017B40088316B19E02B6B15A801A90153248831DA
:1017C40094268831023EFF2B3C08043A0319EF2B80
:1017D400EB106F2688310430BC006C1CAC2B3D0828
:1017E4000E3E4D2688316B19FA2B6B15A801A90101
:1017F4005324883194268831063E3A2688313702AC
:10180400031D062C60083602031CB32BB82B3C08BE
:10181400053A0319122CEB106F2688310530BC00F1
:101824006C1C1A2C3D08103E4D268831EB15C72B35
:10183400EB11C72B3C08063A03192E2CA401A50171
:10184400210091102000EC116C110D140C14EB10FC
:101854006F2688310630BC005324883194268831A1
:101864000A3E3A2688313702031D7F2B6008360270
:101874007F2B3E08003A03191A2B013A03192A2B2D
:10188400033A0319882B013A0319CC2B073A03199D
:10189400E62B013A0319092C033A03191C2C013ACB
:1018A4000800293034254C08DB004B08DA00080016
:1018B4002009F2002109F300F20A0319F30A72085D
:1018C400F6007308F7002208F6072308F73D3D08E1
:1018D40028268831031C01343D08282688313D0818
:1018E400031C7A2C043E28268831031C02343D084C
:1018F400043E282688313D08031C862C023E2826F7
:101904008831031C03343D08023E282688313D08F3
:10191400031C922C063E28268831031C04343D08FF
:10192400063E28268831031C06343D08083E282636
:101934008831031C05340634F6008E140E118F0012
:101944001E30F000F101C5218E158E110800200013
:101954006F08013A0319C92C033A0319D32C013A2D
:1019640003190800063A031D08006B18CD2C410822
:101974000319CD2C8C303302A03003193202031C1E
:10198400C62CB201B301C10341080319CB2CEB16D9
:101994000800EB1208006B1C0800EB12B201B30143
:1019A40008006B1CC92C6B1C0800CB2C6E18DC2C9B
:1019B40022008D1720006E1CE12C22008D132000C4
:1019C400EB1FE62C22000D172000EB1B0800220061
:1019D4000D130800703021009900183097002A3048
:1019E4008C003E308D008E018F01023090002A3031
:1019F40023008C0006308D00023090009E302000C1
:101A04009700583096000B17111021001114313033
:101A1400200098008B16911006309C0008309B0023
:101A24002100911420009310053028009700FA300B
:101A340096002100931438302700940095000B176A
:101A44008B1720000C140D140C166E14EE141014C5
:101A54001430F000F1010123883110101430F0002B
:101A6400F101012B2000CF00D001D101D601D70113
:101A7400D601D7014F080A20883177082000D90001
:101A84007608D800D0075908D13D53085902031DE0
:101A94004D2D520858025908031C542DD3005808E0
:101AA400D20059085502031D592D58085402031C2D
:101AB4005F2D5908D5005808D400D60A0319D70A4F
:101AC400003057020A3003195602031C3C2D5408F7
:101AD4005207CD005508533DCE00CD09CE09CD0A9D
:101AE4000319CE0A4D08CB004E08CC005008CB0792
:101AF4005108CC3DCC36CB0CCC36CB0CCC36CB0CF5
:101B040008000130A02588310230A0258831033037
:101B1400A02588310430A02588310530A0258831DE
:101B24000630A02588310730A02588310830A0254B
:101B340088310930A02588310A30A02DEA00E70158
:101B4400E801E901E02D6A35042688312000E60029
:101B540003146A0D042688312000E700E800E90137
:101B6400E900E8016608E8070318E90A6908D500EE
:101B74006808D400112688315408DA005508DB00BF
:101B84005608DC009430D7001730D8004030D90014
:101B9400C72688315708F8005808F9005908FA0090
:101BA400632788317908E9007808E800FF2D6A3551
:101BB400042688312000E800E901FF2D6A08013A73
:101BC4000319A52D033A0319A52D013A0319A52DCF
:101BD400073A0319D92D013A0319A52D033A03191C
:101BE400A52D013A0319A52D0F3A0319A52D013A84
:101BF4000319D92D033A0319D92D6908FD00680882
:101C0400FC000800F00023001518052E7008910050
:101C140095131513151415180D2E130808005408E0
:101C2400F0005508F100F2018E30F300F401292789
:101C34007008D4007108D5007208D6000800193065
:101C440034254C08DB004B08DA00080086008701C5
:101C5400403FF200413FF30076087207F400770832
:101C6400733DF5007102031D08007408700208003A
:101C740086008701403FDC00413FDD0020085C0214
:101C8400DE0021085D3BDF0022085E07E000230838
:101C94005F3DE100080086008701403FA400413F0A
:101CA400A5002008A4022108A53B2208A4072308B4
:101CB400A53D0800B500F8003408F700F901FA0161
:101CC400FA0A08005A08B6003D08023E0800F80067
:101CD4003408F700F901FA010800A601A7016B1105
:101CE400A801A901EB1108005B08E3005A08E2000F
:101CF4006308BB006208BA000C140800B500F800C1
:101D04003408F700F90108003B08F1003A08F00034
:101D1400E930F200FF30F30008007008DC007108BD
:101D2400DD0008005B08B7005A08B6003D0808004B
:101D34003708F1003608F0001A30F200F301080009
:101D44002F08F1002E08F0002F30F200F3010800F4
:101D5400F1002C08F0003030F200F30108007008A4
:101D64005C07DE0071085D3DDF0008005B08B7001A
:101D74005A08B6000800E830F0000330F10008000B
:101D84003708F1003608F00008005A08DD005B0847
:101D9400DE005C08DF0003105E0D5F0DE400E40864
:101DA400031DD82ED701D801D90108005708DD003A
:101DB4005808DE005908DF0003105E0D5F0DE500D2
:101DC400E508031DE92ED701D801D9010800E10176
:101DD400E201E30189306507DD00E4025C08E50007
:101DE4005908E5068030E505DB17DC01D817D90171
:101DF4001830E000E135E20DE30D59085C02031DE3
:101E0400092F58085B02031D092F57085A02031CA7
:101E1400122F5708DA025808DB3B5908DC3B6114DF
:101E2400DA35DB0DDC0DE00BFC2E6108F0006208F6
:101E3400F1006308F2006408F3006508F400292740
:101E44007008D7007108D8007208D9000800730818
:101E54000319312F720871047004031D392FF00126
:101E6400F101F2010800F30AF236F10CF00CFE3035
:101E740072050319472F352FF30AF00A0319F10AE3
:101E84000319F20AF236F10CF00CFF307205031953
:101E9400502F3E2FF303F035F10DF20DF11F4C2FAF
:101EA400731CF113F3367308F700F601F501750896
:101EB400F0047608F1047708F2047408031DF2179D
:101EC4000800B827883103104C0D4D0DD300D308FA
:101ED400031D712FF801F901FA01FB010800B8276D
:101EE40088311730CD36CC0CCB0C890B742F4B08B2
:101EF400CE00F917FA017808CF007908D0007A08E3
:101F0400D100D2018E30D302D31F942F5308803ACC
:101F14008F3E031C6C2FD236D10CD00CCF0CD30FB8
:101F24008D2FA12F1830530203186C2FD3080319D7
:101F3400A12FCF35D00DD10DD20DD303982F4E083C
:101F44000319AF2FCF09D009D109D209CF0A031938
:101F5400D00A0319D10A0319D20A5208FB00510806
:101F6400FA005008F9004F08F80008007808CB0080
:101F74007908CC007A08CD0008003E030319FA2F33
:101F84003E08063A031DEB1EFA2F21268831EE186F
:101F94006E1CD12FEE14AA01AB010C126E10EE18B8
:101FA4000800EE106B1FDC2F0C166E14AA01AB0197
:101FB4006B1708002B082A04031DE32FAA01AA0AA1
:101FC400AB010B302B02B83003192A02031C0800A2
:101FD400AA01AA0AAB016E18F22F0C166E1408009F
:101FE4006E1C08000C126E10EE14AA01AB0108005E
:0C1FF4000C166E14AA01AB01EE140800DC
:020000040001F9
:04000E001C06330297
:00000001FF
