:0400000080315B28C8
:1000080080312700961D192820006D08031919282A
:100018006D03031919288D1917280330F200F3010D
:1000280080319B208031270096112700961E2D28AD
:1000380020006D0803192D286D0303192D288D1A2A
:100048002B280430F200F30180319B2080312700F7
:1000580096122700161E3B2820000D1A3928023058
:10006800F200F30180319B20803127001612200016
:10007800111C432811109E30970058309600911C8F
:1000880053289110711D5028EB0A79086B02031C44
:100098004F280C1450280C108031B8208031931C44
:1000A8005828931004309006931993110900880179
:1000B80088313D28003442347634313433342E3498
:1000C80032345634203453346F346334303430345B
:1000D800303430340034003401342F3401341C34CB
:1000E80001343934013487340134633401345F34E2
:1000F800013455340134473401347D340F348434A9
:100108000334003402345E34023438340234723436
:1001180002340E340334C6340234BE340234AA34F2
:1001280002348E3402342734203405340D347208F6
:10013800023A73040319AA287208033A73040319CC
:10014800AA287208043A7304031D08006E08F40014
:10015800F50173087506031DB328720874060319A0
:1001680008007208EE000800EA08031D08000030C5
:10017800BD28F300EA00731CC42821009114C62886
:10018800210091107308C828F200720BCE282000B5
:100198000C10080020000C140800640080010131D4
:1001A800890BD2280034FE0012001E00FE0BD8284E
:0201B800003411
:10107A00F001F101F9014E30840000308500203082
:10108A008031D1208831CC308400003085001C307A
:10109A008031D12088310130EE000330EF006F300B
:1010AA00840080308500A0308600003087002C3014
:1010BA008031D7208831200062284C2388310723C9
:1010CA0088313F228831EB24883122000E1694237E
:1010DA0088316400D8228831EF01EF0A0B23883166
:1010EA009C208831DA248831333020006902031CBD
:1010FA008128E901EE238831F11C8628F110F124B8
:10110A00883120006C08463A031D8F28EC0A083003
:10111A004E228831711E952871120230ED00F112AB
:10112A00F11A711F6E2871130330ED006E28BE2963
:10113A00ED01D62188313B08E1003A08E000F526A6
:10114A008831DD218831E600F010A826E401080084
:10115A006D08023A031DB7280B302C228831FF3064
:10116A002122883164030319BF28F010A826883188
:10117A00E401E40A711CCB2865080C3E94268831E8
:10118A00F018E528F014D401D501E528F010D401AF
:10119A00D501D62188313B08E100A3268831812672
:1011AA00883161084202031DDC28600841020318E5
:1011BA00E5286108F7006008F600DD218831E600BD
:1011CA008C305502A03003195402031C0800F01099
:1011DA00D401D5016430F600F701BA248831D6214A
:1011EA0088313B08E100A3268831812688316108CD
:1011FA004202031D0229600841020318080061081F
:10120A00F7006008F600DD21E60008006408023AEB
:10121A0003191429F010A82688310230E400711C41
:10122A002F2965080E3E9426883170191F297015DA
:10123A00D601D701D6218831C7268831812688313F
:10124A006102031D2A294108600203183B29E601AD
:10125A00E60A3B297011D601D701D6218831F0263A
:10126A008831F5268831DD218831E6008C30570235
:10127A00A03003195602031C08007011D601D701C9
:10128A006430F600F701BA248831D6218831F02675
:10129A00883104296408033A03195829F010A8264A
:1012AA0088310330E400711C2F2965080E3E94260C
:1012BA008831701963297015D601D701D621883172
:1012CA00C7268831023E82296408043A0319722922
:1012DA00F010A82688310430E400711C2F29650813
:1012EA000E3E9426883170197D297015D601D701D2
:1012FA00D6218831C7268831063E81268831610287
:10130A00031D892941086002031C36293B29640808
:10131A00053A03199529F010A82688310530E4000A
:10132A00711C9D296508103E94268831F0154A29BA
:10133A00F0114A296408063A0319B129D201D301E6
:10134A0021009110F111711120000D140C14F010EC
:10135A00A82688310630E400D6218831C72688318C
:10136A000A3E812688316102031D02294108600272
:10137A0002296608003A03199D28013A0319AD2883
:10138A00033A03190B29013A03194F29073A03199A
:10139A006929013A03198C29033A03199F29013A49
:1013AA00080029305A222C08BB002B08BA00080072
:1013BA004E09A0004F09A100A00A0319A10A20089A
:1013CA00A4002108A5005008A4075108A53D6508F6
:1013DA006F268831031C013465086F268831650839
:1013EA00031CFD29043E6F268831031C023465085C
:1013FA00043E6F2688316508031C092A023E6F26BF
:10140A008831031C03346508023E6F26883165085B
:10141A00031C152A063E6F268831031C043465080E
:10142A00063E6F268831031C06346508083E6F267F
:10143A008831031C05340634A4008E140E118F0063
:10144A001E30F600F701BA248E158E110800A80086
:10145A002E2AA600A7010F304E22883102304E22D2
:10146A0088312708A70AA5002608250203180800BC
:10147A001430342A38304E2288310C304E228831CA
:10148A0006304E22883101304E228831EB268831CF
:10149A00BA2C2000A4008E100E118F003230F600F4
:1014AA00F701BA248E158E1108002000AF00B00192
:1014BA00B101B601B701B601B7012F08A8228831D8
:1014CA002508B9002408B800B0073908B13D330827
:1014DA003902031D722A320838023908031C792A94
:1014EA00B3003808B20039083502031D7E2A3808CD
:1014FA003402031C842A3908B5003808B400B60A35
:10150A000319B70A003037020A3003193602031CDE
:10151A00622A34083207AD003508333DAE00AD0902
:10152A00AE09AD0A0319AE0A2D08AB002E08AC00AD
:10153A003008AB073108AC3DAC36AB0CAC36AB0C63
:10154A00AC36AB0C0800A80022009701200028083E
:10155A0021009D0090309E001430F600F701BA2455
:10156A00883121009D149D18B82A1B082000A90063
:10157A00AA0121001C082000A600A7010830A635F0
:10158A00A70D890BC42A2608A9042708AA0428300B
:10159A0021009D001430F600F701BA242A08A5009C
:1015AA002908A400080020006F08013A0319F82A44
:1015BA00033A0319022B013A03190800063A031DDC
:1015CA0008007018FC2A68080319FC2A8C305F028C
:1015DA00A03003195E02031CF52ADE01DF01E803CD
:1015EA0068080319FA2AF0160800F0120800701C9D
:1015FA000800F012DE01DF010800701CF82A701CD6
:10160A000800FA2A2100E801E901442D66030319BA
:10161A00462B6608063A031DF01E462BD324883152
:10162A00F818781C1D2BF814D801D9010C1278105F
:10163A00F8180800F810701F282B0C167814D80117
:10164A00D9017017080059085804031D2F2BD80117
:10165A00D80AD9010B305902B83003195802031CB1
:10166A000800D801D80AD90178183E2B0C1678142C
:10167A000800781C08000C127810F814D801D90157
:10168A0008000C167814D801D901F8140800703033
:10169A0021009900183097002A308C003E308D00C6
:1016AA008E018F01023090002A3023008C00063010
:1016BA008D00023090009E3020009700583096002E
:1016CA000B171110210011143130200098008B16CD
:1016DA00911006309C0008309B00210091142000D4
:1016EA009310053028009700FA30960021009314D1
:1016FA0038302700940095000B178B1720000C1424
:10170A000D140C167814F81410141430F600F7019E
:10171A00BA24883110101430F600F701BA2CD621F9
:10172A0088313B08E1003A08E00001306102873065
:10173A00031960020318A32BA030B22B03306102F5
:10174A000E30031960020318B32B02306102013014
:10175A0003196002031CB32BB630E500B3248831A9
:10176A003B08DD003A08DC00D62188313B08DB0063
:10177A003A08DA005B08E42688319E24883120087A
:10178A00A03EBD00F630213DBE00D52688319E24FC
:10179A0088313E082102031DD42B3D082002031C78
:1017AA00DF2B5B08E42688319E248831D5268831D0
:1017BA009E248831D3243B082100E70020003A0800
:1017CA002100E6002000D001D101CE01CF01E901BC
:1017DA0008007119212CFA307902031C052C0D140A
:1017EA00C830F600F701BA248831B32488313B089F
:1017FA00C4003A08C3004408E3004308E2000D109D
:10180A00F908031D212C0D14E708031D162C0C10D2
:10181A00EB268831BA248831B3248831AF2688313F
:10182A00212C0C1064306702031C212CE701B3241D
:10183A008831AF2688317016711D312C0D14711143
:10184A000C10C830F600F701BA248831B324883165
:10185A00AF26883171150D10003063021930031953
:10186A00620203183A2C71143C2C7110F013CD2625
:10187A0088319E248831C2268831B92688319E242F
:10188A008831DD2688316508123E86008701403F8F
:10189A00C100413FC20040084202031D562C3F08C6
:1018AA00410203185C2C7012E7010D177014CD2643
:1018BA0088319E248831C2268831B92688319E24EF
:1018CA008831DD2688310E304002663003193F0226
:1018DA00031C701C752CE708031D752CE701E70A29
:1018EA00701E08007012E7016508143E8600870121
:1018FA00403FBD00413FBE00CD2688319E2488313D
:10190A002008BF002108C000B92688319E248831EA
:10191A0020083F07C1002108403DC2003E0842029C
:10192A00031D992C3D084102031808000D1370107D
:10193A000800F601F701201CA62C2208F607230846
:10194A00F73DA235A30DA136A00C21082004031DE2
:10195A00A02C7708A1007608A000080021305A229E
:10196A002C08BB002B08BA00080077082000A10049
:10197A007608A00021082004031908000A30A200F2
:10198A00A3010130A2020030A33B23082204013044
:10199A00031DC72CA0020030A13BBF2C19305A22CC
:1019AA002C08BB002B08BA0008007818DE2C22008D
:1019BA008D17781CE22C22008D13F01FE62C2200D2
:1019CA000D17F01B080022000D13080001304E22EB
:1019DA008831EB268831BA2CD62188313B08BE00E3
:1019EA003A08BD00F01C7019FC2CF01D382D0D10A2
:1019FA0053083E02031D032D52083D020318192DF8
:101A0A00F017FA307902031C112D21009110F111FF
:101A1A00711120000C10192DF119172D21009114A4
:101A2A00F11571150A30F90720003E085302031D0B
:101A3A00202D3D08520203180800093079020318C4
:101A4A002E2D21009110F111711120000C14F013A8
:101A5A000800F017F119352D21009114F1157115AF
:101A6A00F630F9070800F11D3E2D21009110F11101
:101A7A0071112000EB01F9010D14F0130800043074
:101A8A00EA00EB01EC0121006908680403195C2DE6
:101A9A006B356A077C25883121006B35CC3E860080
:101AAA00870120004708C03F4808C13F6C2D6B35AD
:101ABA00CC3E86008701403F2000C700413FC80056
:101ACA0021006B356A072000C900FA2688312100F7
:101ADA00EB0A0319EC0A6C08803AFF0080307F0297
:101AEA00031D792D0A306B0203180800482D2000C7
:101AFA00CD00CB01CC014D08B62588312000CB079B
:101B0A000318CC0A4D0AB62588312000C900CA013B
:101B1A000830C935CA0D890B8E2D4908CB074A08EA
:101B2A00CC3D4C08B6004B08B5002526883135084F
:101B3A00BB003608BC003708BD009430B800173027
:101B4A00B9004030BA00C32588313808A8003908DE
:101B5A00A9003A08AA003A272908C8002808C70095
:101B6A000800F60023001518B72D76089100951382
:101B7A00151315141518BF2D130808003B08BE00CD
:101B8A003C08BF003D08C00003103F0D400DC500D2
:101B9A00C508031DD42DB801B901BA0108003808D7
:101BAA00BE003908BF003A08C00003103F0D400DBF
:101BBA00C600C608031DE52DB801B901BA0108001F
:101BCA00C201C301C40189304607BE00C5023D08EF
:101BDA00C6003A08C6068030C605BC17BD01B9174B
:101BEA00BA011830C100C235C30DC40D3A083D020E
:101BFA00031D052E39083C02031D052E38083B0239
:101C0A00031C0E2E3808BB023908BC3B3A08BD3B00
:101C1A004214BB35BC0DBD0DC10BF82D4208A00006
:101C2A004308A1004408A2004508A3004608A400EE
:101C3A0035262008B8002108B9002208BA00080091
:101C4A003508A0003608A100A2018E30A300A40125
:101C5A0035262008B5002108B6002208B70008007A
:101C6A00230803193D2E220821042004031D452EB2
:101C7A00A001A101A2010800A30AA236A10CA00C8E
:101C8A00FE3022050319532E412EA30AA00A031976
:101C9A00A10A0319A20AA236A10CA00CFF30220540
:101CAA0003195C2E4A2EA303A035A10DA20DA11F74
:101CBA00582E231CA113A3362308A700A601A501A9
:101CCA002508A0042608A1042708A2042408031D45
:101CDA00A217080086008701403FA000413FA100EB
:101CEA0024082007A2002508213DA3007702031D2E
:101CFA00080022087602080086008701403FBD00DE
:101D0A00413FBE004E083D02BF004F083E3BC000A7
:101D1A0050083F07C1005108403DC2000800860034
:101D2A008701403FD200413FD3004E08D2024F08FC
:101D3A00D33B5008D2075108D33D08003A08E000C7
:101D4A006508023E0800D401D5017011D601D701F9
:101D5A00F01108003B08C4003A08C3004408E30035
:101D6A004308E2000C1408006308A1006208A000FE
:101D7A00E930A200FF30A30008002008BD002108B6
:101D8A00BE0008003B08E1003A08E00065080800C8
:101D9A006108A1006008A0001A30A200A30108008F
:101DAA005D08A1005C08A0002F30A200A301080072
:101DBA0020083D07BF0021083E3DC0000800A100E1
:101DCA005A08A0003030A200A3010800E830F6004B
:101DDA000330F70008003B08E1003A08E000080079
:101DEA006108F7006008F60008004808B6004708CE
:101DFA00B500252688313508BB003608BC003708EF
:101E0A00BD009430B8001730B9004030BA008F27AF
:101E1A0088313808A8003908A9003A08AA003A27E0
:101E2A0088312908CB002808CA004908F6004A0860
:101E3A00242788312000490AF6004B08242FF7008E
:101E4A0023009518252F8B137608910077089300A5
:101E5A0095131513151555309600AA30960095144A
:101E6A008B179518362F15110800F32788310310A0
:101E7A002D0D2E0DB400B408031D482FA801A90189
:101E8A00AA01AB010800F32788311730AE36AD0C32
:101E9A00AC0C890B4B2F2C08AF00A917AA012808F4
:101EAA00B0002908B1002A08B200B3018E30B4028A
:101EBA00B41F6B2F3408803A8F3E031C432FB3366E
:101ECA00B20CB10CB00CB40F642F782F1830340256
:101EDA000318432FB4080319782FB035B10DB20D8A
:101EEA00B30DB4036F2F2F080319862FB009B10958
:101EFA00B209B309B00A0319B10A0319B20A0319DC
:101F0A00B30A3308AB003208AA003108A900300826
:101F1A00A80008003808BE003908BF003A08C00007
:101F2A0003103F0D400DC100C108031DA02FB801C9
:101F3A00B901BA0108003B08BE003C08BF003D08D1
:101F4A00C00003103F0D400DC600C608031DB12F87
:101F5A00B801B901BA01080046087B3EC1073A0830
:101F6A00C6003D08C6068030C605B917BC17FF3043
:101F7A00BB05BC05BD01C201C301C4010730C500D0
:101F8A00381CCA2F3B08FA278831BA36B90CB80C64
:101F9A00BB35BC0DBD0DC50BC52F0930C500381C9E
:101FAA00D92F3B08FA278831BA36B90CB80CC4368F
:101FBA00C30CC20CC50BD42F4208A0004308A100D1
:101FCA004408A2004108A3004608A40035262008B8
:101FDA00B8002108B9002208BA0008002808AC0095
:101FEA002908AD002A08AE000800C2073C08C33D14
:061FFA003D08C43D080093
:020000040001F9
:04000E001C06330297
:00000001FF
