:0400000080315928CA
:1000080080312700961D19287808031919287803C4
:100018000319192820008D1917280330F000F10161
:100028008331DC23803127009611961E2C2878080E
:1000380003192C28780303192C2820008D1A2A2844
:100048000430F000F1018331DC238031270096125F
:10005800161E392820000D1A37280230F000F10149
:100068008331DC238031270016122000111C41281F
:1000780011109E30970058309600911C512891100D
:10008800791C4E28F70A76087702031C4D280C14B1
:100098004E280C108331F9238031931C5628931075
:1000A80004309006931993110900880180315C2867
:1000B800F901F601F701F801E701E801E901EA01B0
:1000C800EB01EC01ED018430840083308500983029
:1000D8008600203087000030FF00583084313F24EC
:1000E8008031123084008430850050308600003022
:1000F80087000030FF00173084313F2480312930D9
:10010800840084308500A0308600003087000030ED
:10011800FF00163084313F24803120009328B2201C
:10012800803131218031102180312B218031220012
:100138000E166400F401F501A32080319D282000EB
:100148006C08A000A10175082106031DAD287408DC
:100158002006031908007408EC000800703021001C
:100168009900183097002A308C003E308D008E019F
:100178008F01023090002A3023008C0006308D0059
:10018800023090009E3020009700583096000B17E0
:100198001110210011143130200098008B16911095
:1001A80006309C0008309B00210091142000931019
:1001B800053028009700FA30960021009314383053
:1001C8002700940095000B178B1720000C140D14B2
:1001D8000C1610141430F400F501F82080311010BA
:1001E8001430F400F501F8287508A1007408A0007F
:1001F80021082004031908000A30A200A3010130D5
:10020800A2020030A33B230822040130031D042965
:10021800A0020030A13BFC2838301F2180310C306F
:100228001F21803106301F21803101301F2180318C
:100238007F238031F8282000A4008E100E118F0033
:100248003230F400F501F8208E158E1108000130C7
:100258001F2180317F238031F828CE01CF01342936
:1002680002302100B60020004F084E04031942292D
:1002780002307D2180314708EB0049296B08C7000F
:10028800C8010230C900C42180312100B701B70A72
:10029800B80120004F084E0403195F2921003735A3
:1002A80036077D2180316923803120004708C03F0F
:1002B8004808C13F6D2969238031403F2000C700AD
:1002C800413FC8002100373536072000C900C42146
:1002D80080312100B70A0319B80A3808803AFF00AC
:1002E80080307F02031D7A290A303702031808007C
:1002F8004D292000CD00CB01CC014D08B72180311C
:100308002000CB070318CC0A4D0AB7218031200002
:10031800C900CA010830C935CA0D890B8F29490897
:10032800CB074A08CC3D4C08B6004B08B500EE2177
:1003380080313508BB003608BC003708BD00943052
:10034800B8001730B9004030BA0069228031380847
:10035800A8003908A9003A08AA0014222908C800E8
:100368002808C7000800F40023001518B8297408E5
:1003780091009513151315141518C02913080800B2
:100388004808B6004708B500EE2180313508BB00A3
:100398003608BC003708BD009430B8001730B900E3
:1003A8004030BA00052380313808A8003908A90070
:1003B8003A08AA00142280312908CB002808CA006C
:1003C8004908F4004A08FE2180312000490AF40057
:1003D8004B08FE293508A0003608A100A2018E307E
:1003E800A300A401CB222008B5002108B6002208EA
:1003F800B7000800F50023009518FF298B1374082F
:10040800910075089300951315131515553096002E
:10041800AA30960095148B179518102A1511080004
:100428007223803103102D0D2E0DB400B408031D66
:10043800222AA801A901AA01AB0108007223803170
:100448001730AE36AD0CAC0C890B252A2C08AF0042
:10045800A917AA012808B0002908B1002A08B20083
:10046800B3018E30B402B41F452A3408803A8F3E57
:10047800031C1D2AB336B20CB10CB00CB40F3E2AC3
:10048800522A1830340203181D2AB4080319522AB4
:10049800B035B10DB20DB30DB403492A2F080319B5
:1004A800602AB009B109B209B309B00A0319B10A3F
:1004B8000319B20A0319B30A3308AB003208AA00B9
:1004C8003108A9003008A80008003B08BE003C0815
:1004D800BF003D08C00003103F0D400DC500C50812
:1004E800031D7A2AB801B901BA0108003808BE000C
:1004F8003908BF003A08C00003103F0D400DC60080
:10050800C608031D8B2AB801B901BA010800C20147
:10051800C301C40189304607BE00C5023D08C600B4
:100528003A08C6068030C605BC17BD01B917BA011E
:100538001830C100C235C30DC40D3A083D02031D71
:10054800AB2A39083C02031DAB2A38083B02031CBE
:10055800B42A3808BB023908BC3B3A08BD3B4214F0
:10056800BB35BC0DBD0DC10B9E2A4208A000430837
:10057800A1004408A2004508A3004608A400CB2215
:100588002008B8002108B9002208BA00080023088A
:100598000319D32A220821042004031DDB2AA00101
:1005A800A101A2010800A30AA236A10CA00CFE30EA
:1005B80022050319E92AD72AA30AA00A0319A10ABE
:1005C8000319A20AA236A10CA00CFF3022050319B8
:1005D800F22AE02AA303A035A10DA20DA11FEE2A3D
:1005E800231CA113A3362308A700A601A5012508EB
:1005F800A0042608A1042708A2042408031DA217A2
:1006080008003808BE003908BF003A08C0000310C7
:100618003F0D400DC100C108031D162BB801B901DB
:10062800BA0108003B08BE003C08BF003D08C000F6
:1006380003103F0D400DC600C608031D272BB80147
:10064800B901BA01080046087B3EC1073A08C6004E
:100658003D08C6068030C605B917BC17FF30BB0574
:10066800BC05BD01C201C301C4010730C500381C67
:10067800402B3B0879238031BA36B90CB80CBB350E
:10068800BC0DBD0DC50B3B2B0930C500381C4F2BCD
:100698003B0879238031BA36B90CB80CC436C30C80
:1006A800C20CC50B4A2B4208A0004308A10044080D
:1006B800A2004108A3004608A400CB222008B800E5
:1006C8002108B9002208BA00080021003735DA3EAF
:1006D800860020300318890A870008002808AC0023
:1006E8002908AD002A08AE000800C2073C08C33D2F
:1006F8003D08C43D0800E830F4000330F500080068
:100708000034003400340034003400340034003441
:100718000034003400340034003400340034003431
:100728000034003400340034003400340134003420
:100738000034003400340034003400340034003411
:100748000034003400340034003400340034003401
:1007580000340034003400340234003400340034EF
:1007680000340034003400340034003400340034E1
:1007780000340034003400340034003400340034D1
:1007880000340034033400340034003400340034BE
:1007980000340034003400340034003400340034B1
:1007A80000340034003400340034003400340034A1
:1007B8007008023A71040319EB2B7008033A7104AC
:1007C8000319EB2B7008043A7104031D0800500844
:1007D800F200F30171087306031DF42B700872060A
:1007E800031908007008D0000800ED08031D080070
:1007F8000030FE2BF100ED00711C052C2100911436
:10080800072C210091107108092CF000700B0F2C97
:1008180020000C10080020000C14080001340034DB
:1008280001342F3401341C34013439340134873411
:100838000134633401345F340134553401344734AE
:1008480001347D340F3484340334003402345E348C
:10085800023438340234723402340E340334C63469
:100868000234BE340234AA3402348E3402342734BB
:10087800203405340D34FE0012001E000130FE0243
:0E0888000030FF3B7F087E0403190034402C33
:100A0000003401340034003400340A34003400343B
:100A100000346434003400340034E83403340034E7
:100A200000341034273400340034A03486340134C8
:100A30000034403442340F340034803496349834D7
:100A400000340034E134F53405340034CA349A34C7
:100A50003B34543449344D3445343A342034203412
:100A60002034203420342534303433342E343034A0
:100A700031346634563400345234453420345534DD
:100A80004E3444344534523420343A3425343034EE
:100A900033342E34303431346634563400344434F4
:100AA0004134593420342034203456344F344C34BB
:100AB0003A342534303433342E34303431346634DF
:100AC0005634003456344F344534523420342034B4
:100AD00056344F344C343A342534303433342E3495
:100AE0003034313466345634003455344E34443462
:100AF00045345234203456344F344C343A3425344F
:100B0000303433342E343034313466345634003497
:100B10004E344934473448345434203456344F34F6
:100B20004C343A342534303433342E343034313488
:100B30006634563400345234453420342034203462
:100B40004F345634453452343A3425343034333407
:100B50002E343034313466345634003446346C34F8
:100B60005F344334683461347234673465343A3402
:100B70002534303433342E34303431346634563402
:100B8000003445346E345F34433468346134723435
:100B9000673465343A342534303433342E343034C9
:100BA0003134663456340034453471345F34433460
:100BB000683461347234673465343A3425343034FF
:100BC00033342E34303431346634563400344234C5
:100BD0007634313433342E34333456342034533471
:100BE0006F3463343034303430343034003449348A
:100BF0006334313435342E34333441342034493481
:100C00006F34313438342E34383441340034533472
:100C100045345434543449344E34473420345534F4
:100C20005034203444344F3457344E340034533429
:100C300065346C34663420347334653474347434FD
:100C400069346E346734733400344C346534613441
:100C500064342D3461346334693464342034423470
:100C6000613474340034423461347434743465341F
:100C70007234793420345434793470346534003427
:100C8000473465346C3420346234613474347434E1
:100C900065347234793400344F34703465346E34D2
:0C0CA0002034633465346C346C34003450
:020000040001F9
:04000E001C06330297
:00000001FF
